{
  "_format": "hh-sol-artifact-1",
  "contractName": "Agent",
  "sourceName": "contracts/Agent.sol",
  "abi": [
    {
      "inputs": [
        {
          "internalType": "uint256",
          "name": "_startTime",
          "type": "uint256"
        },
        {
          "internalType": "uint256",
          "name": "_endTime",
          "type": "uint256"
        }
      ],
      "name": "addAppointmentSlot",
      "outputs": [],
      "stateMutability": "nonpayable",
      "type": "function"
    },
    {
      "inputs": [
        {
          "internalType": "string",
          "name": "_name",
          "type": "string"
        },
        {
          "internalType": "uint256",
          "name": "_designation",
          "type": "uint256"
        },
        {
          "internalType": "string",
          "name": "_hash",
          "type": "string"
        }
      ],
      "name": "add_agent",
      "outputs": [
        {
          "internalType": "string",
          "name": "",
          "type": "string"
        }
      ],
      "stateMutability": "nonpayable",
      "type": "function"
    },
    {
      "inputs": [
        {
          "internalType": "string",
          "name": "_name",
          "type": "string"
        },
        {
          "internalType": "uint256",
          "name": "_mobileNo",
          "type": "uint256"
        },
        {
          "internalType": "string",
          "name": "_email",
          "type": "string"
        },
        {
          "internalType": "string",
          "name": "_website",
          "type": "string"
        },
        {
          "internalType": "string",
          "name": "_address",
          "type": "string"
        },
        {
          "internalType": "string",
          "name": "_speciality",
          "type": "string"
        },
        {
          "internalType": "uint256",
          "name": "_experience",
          "type": "uint256"
        },
        {
          "internalType": "uint256",
          "name": "_fees",
          "type": "uint256"
        }
      ],
      "name": "add_doctor",
      "outputs": [
        {
          "internalType": "string",
          "name": "",
          "type": "string"
        }
      ],
      "stateMutability": "nonpayable",
      "type": "function"
    },
    {
      "inputs": [
        {
          "internalType": "string",
          "name": "_name",
          "type": "string"
        },
        {
          "internalType": "string",
          "name": "_dateOfBirth",
          "type": "string"
        },
        {
          "internalType": "string",
          "name": "_email",
          "type": "string"
        },
        {
          "internalType": "string",
          "name": "_mobileNo",
          "type": "string"
        },
        {
          "internalType": "string",
          "name": "_alternateNo",
          "type": "string"
        },
        {
          "internalType": "string",
          "name": "_address",
          "type": "string"
        },
        {
          "internalType": "string",
          "name": "_insuranceName",
          "type": "string"
        },
        {
          "internalType": "uint256",
          "name": "_deductibilities",
          "type": "uint256"
        },
        {
          "internalType": "string",
          "name": "_validity",
          "type": "string"
        },
        {
          "internalType": "string",
          "name": "_hash",
          "type": "string"
        }
      ],
      "name": "add_patient",
      "outputs": [
        {
          "internalType": "string",
          "name": "",
          "type": "string"
        }
      ],
      "stateMutability": "nonpayable",
      "type": "function"
    },
    {
      "inputs": [
        {
          "internalType": "address",
          "name": "_doctor",
          "type": "address"
        },
        {
          "internalType": "uint256",
          "name": "_slotIndex",
          "type": "uint256"
        }
      ],
      "name": "bookAppointment",
      "outputs": [],
      "stateMutability": "nonpayable",
      "type": "function"
    },
    {
      "inputs": [
        {
          "internalType": "uint256",
          "name": "",
          "type": "uint256"
        }
      ],
      "name": "doctorList",
      "outputs": [
        {
          "internalType": "address",
          "name": "",
          "type": "address"
        }
      ],
      "stateMutability": "view",
      "type": "function"
    },
    {
      "inputs": [
        {
          "internalType": "address",
          "name": "_doctor",
          "type": "address"
        }
      ],
      "name": "getDoctorAppointments",
      "outputs": [
        {
          "components": [
            {
              "internalType": "uint256",
              "name": "startTime",
              "type": "uint256"
            },
            {
              "internalType": "uint256",
              "name": "endTime",
              "type": "uint256"
            },
            {
              "internalType": "address",
              "name": "patient",
              "type": "address"
            },
            {
              "internalType": "bool",
              "name": "isBooked",
              "type": "bool"
            }
          ],
          "internalType": "struct Agent.AppointmentSlot[]",
          "name": "",
          "type": "tuple[]"
        }
      ],
      "stateMutability": "view",
      "type": "function"
    },
    {
      "inputs": [
        {
          "internalType": "address",
          "name": "addr",
          "type": "address"
        }
      ],
      "name": "get_accessed_doctorlist_for_patient",
      "outputs": [
        {
          "internalType": "address[]",
          "name": "",
          "type": "address[]"
        }
      ],
      "stateMutability": "view",
      "type": "function"
    },
    {
      "inputs": [
        {
          "internalType": "address",
          "name": "addr",
          "type": "address"
        }
      ],
      "name": "get_accessed_patientlist_for_doctor",
      "outputs": [
        {
          "internalType": "address[]",
          "name": "",
          "type": "address[]"
        }
      ],
      "stateMutability": "view",
      "type": "function"
    },
    {
      "inputs": [
        {
          "internalType": "address",
          "name": "addr",
          "type": "address"
        }
      ],
      "name": "get_doctor",
      "outputs": [
        {
          "internalType": "string",
          "name": "",
          "type": "string"
        },
        {
          "internalType": "uint256",
          "name": "",
          "type": "uint256"
        },
        {
          "internalType": "string",
          "name": "",
          "type": "string"
        },
        {
          "internalType": "uint256",
          "name": "",
          "type": "uint256"
        }
      ],
      "stateMutability": "view",
      "type": "function"
    },
    {
      "inputs": [],
      "name": "get_doctor_list",
      "outputs": [
        {
          "internalType": "address[]",
          "name": "",
          "type": "address[]"
        }
      ],
      "stateMutability": "view",
      "type": "function"
    },
    {
      "inputs": [
        {
          "internalType": "address",
          "name": "paddr",
          "type": "address"
        }
      ],
      "name": "get_hash",
      "outputs": [
        {
          "internalType": "string",
          "name": "",
          "type": "string"
        }
      ],
      "stateMutability": "view",
      "type": "function"
    },
    {
      "inputs": [
        {
          "internalType": "address",
          "name": "addr",
          "type": "address"
        }
      ],
      "name": "get_insurance",
      "outputs": [
        {
          "internalType": "string",
          "name": "",
          "type": "string"
        }
      ],
      "stateMutability": "view",
      "type": "function"
    },
    {
      "inputs": [
        {
          "internalType": "address",
          "name": "addr",
          "type": "address"
        }
      ],
      "name": "get_patient",
      "outputs": [
        {
          "internalType": "string",
          "name": "",
          "type": "string"
        },
        {
          "internalType": "string",
          "name": "",
          "type": "string"
        },
        {
          "internalType": "string",
          "name": "",
          "type": "string"
        },
        {
          "internalType": "string",
          "name": "",
          "type": "string"
        },
        {
          "internalType": "string",
          "name": "",
          "type": "string"
        },
        {
          "internalType": "string",
          "name": "",
          "type": "string"
        }
      ],
      "stateMutability": "view",
      "type": "function"
    },
    {
      "inputs": [
        {
          "internalType": "address",
          "name": "paddr",
          "type": "address"
        },
        {
          "internalType": "address",
          "name": "daddr",
          "type": "address"
        }
      ],
      "name": "get_patient_doctor_name",
      "outputs": [
        {
          "internalType": "string",
          "name": "",
          "type": "string"
        },
        {
          "internalType": "string",
          "name": "",
          "type": "string"
        }
      ],
      "stateMutability": "view",
      "type": "function"
    },
    {
      "inputs": [],
      "name": "get_patient_list",
      "outputs": [
        {
          "internalType": "address[]",
          "name": "",
          "type": "address[]"
        }
      ],
      "stateMutability": "view",
      "type": "function"
    },
    {
      "inputs": [
        {
          "internalType": "uint256",
          "name": "",
          "type": "uint256"
        }
      ],
      "name": "insuranceList",
      "outputs": [
        {
          "internalType": "address",
          "name": "",
          "type": "address"
        }
      ],
      "stateMutability": "view",
      "type": "function"
    },
    {
      "inputs": [
        {
          "internalType": "address",
          "name": "paddr",
          "type": "address"
        },
        {
          "internalType": "uint256",
          "name": "_diagnosis",
          "type": "uint256"
        },
        {
          "internalType": "string",
          "name": "_hash",
          "type": "string"
        }
      ],
      "name": "insurance_claim",
      "outputs": [],
      "stateMutability": "nonpayable",
      "type": "function"
    },
    {
      "inputs": [
        {
          "internalType": "uint256",
          "name": "",
          "type": "uint256"
        }
      ],
      "name": "patientList",
      "outputs": [
        {
          "internalType": "address",
          "name": "",
          "type": "address"
        }
      ],
      "stateMutability": "view",
      "type": "function"
    },
    {
      "inputs": [
        {
          "internalType": "address",
          "name": "addr",
          "type": "address"
        }
      ],
      "name": "permit_access",
      "outputs": [],
      "stateMutability": "payable",
      "type": "function"
    },
    {
      "inputs": [
        {
          "internalType": "address",
          "name": "paddr",
          "type": "address"
        },
        {
          "internalType": "address",
          "name": "daddr",
          "type": "address"
        }
      ],
      "name": "remove_patient",
      "outputs": [],
      "stateMutability": "nonpayable",
      "type": "function"
    },
    {
      "inputs": [
        {
          "internalType": "address",
          "name": "daddr",
          "type": "address"
        }
      ],
      "name": "revoke_access",
      "outputs": [],
      "stateMutability": "payable",
      "type": "function"
    }
  ],
  "bytecode": "0x608060405234801561001057600080fd5b5061374a806100206000396000f3fe6080604052600436106101345760003560e01c8063ae5b3f81116100ab578063c5598c911161006f578063c5598c9114610496578063d2e4c2bd146104d3578063dd44176b14610510578063e81ac0541461054d578063eef2899614610578578063f24be9e7146105a157610134565b8063ae5b3f8114610398578063b9b3a6d1146103d5578063babb1d4114610412578063bcffb7ca1461044f578063c39e96351461046b57610134565b806327b1dcee116100fd57806327b1dcee146102435780633e42542f1461025f5780634042d2d41461029c5780635483c566146102de57806356c98c481461031b5780637e1519ce1461035b57610134565b80627ee3ce146101395780630362fe9b14610176578063127ca4b41461019f5780631e3fc3b8146101dc578063223310c91461021a575b600080fd5b34801561014557600080fd5b50610160600480360381019061015b9190612789565b6105ca565b60405161016d9190612874565b60405180910390f35b34801561018257600080fd5b5061019d60048036038101906101989190612896565b6106a0565b005b3480156101ab57600080fd5b506101c660048036038101906101c1919061290c565b61073a565b6040516101d39190612948565b60405180910390f35b3480156101e857600080fd5b5061020360048036038101906101fe9190612896565b610779565b6040516102119291906129f3565b60405180910390f35b34801561022657600080fd5b50610241600480360381019061023c9190612a2a565b610923565b005b61025d60048036038101906102589190612789565b610a89565b005b34801561026b57600080fd5b506102866004803603810190610281919061290c565b610a96565b6040516102939190612948565b60405180910390f35b3480156102a857600080fd5b506102c360048036038101906102be9190612789565b610ad5565b6040516102d596959493929190612a6a565b60405180910390f35b3480156102ea57600080fd5b5061030560048036038101906103009190612789565b610fc7565b6040516103129190612af5565b60405180910390f35b34801561032757600080fd5b50610342600480360381019061033d9190612789565b61109b565b6040516103529493929190612b26565b60405180910390f35b34801561036757600080fd5b50610382600480360381019061037d9190612789565b6112d4565b60405161038f9190612af5565b60405180910390f35b3480156103a457600080fd5b506103bf60048036038101906103ba9190612cae565b6113a8565b6040516103cc9190612af5565b60405180910390f35b3480156103e157600080fd5b506103fc60048036038101906103f79190612e89565b6115dd565b6040516104099190612af5565b60405180910390f35b34801561041e57600080fd5b506104396004803603810190610434919061290c565b61179c565b6040516104469190612948565b60405180910390f35b61046960048036038101906104649190612789565b6117db565b005b34801561047757600080fd5b50610480611924565b60405161048d9190612874565b60405180910390f35b3480156104a257600080fd5b506104bd60048036038101906104b89190612789565b6119b2565b6040516104ca91906130f9565b60405180910390f35b3480156104df57600080fd5b506104fa60048036038101906104f5919061311b565b611ad5565b6040516105079190612af5565b60405180910390f35b34801561051c57600080fd5b5061053760048036038101906105329190612789565b611e50565b6040516105449190612874565b60405180910390f35b34801561055957600080fd5b50610562611f20565b60405161056f9190612874565b60405180910390f35b34801561058457600080fd5b5061059f600480360381019061059a91906131a6565b611fae565b005b3480156105ad57600080fd5b506105c860048036038101906105c391906131e6565b6120c8565b005b60606000600460008473ffffffffffffffffffffffffffffffffffffffff1673ffffffffffffffffffffffffffffffffffffffff16815260200190815260200160002060020190508080548060200260200160405190810160405280929190818152602001828054801561069357602002820191906000526020600020905b8160009054906101000a900473ffffffffffffffffffffffffffffffffffffffff1673ffffffffffffffffffffffffffffffffffffffff1681526020019060010190808311610649575b5050505050915050919050565b6106eb600560008373ffffffffffffffffffffffffffffffffffffffff1673ffffffffffffffffffffffffffffffffffffffff168152602001908152602001600020600801836122e3565b610736600460008473ffffffffffffffffffffffffffffffffffffffff1673ffffffffffffffffffffffffffffffffffffffff168152602001908152602001600020600201826122e3565b5050565b6002818154811061074a57600080fd5b906000526020600020016000915054906101000a900473ffffffffffffffffffffffffffffffffffffffff1681565b606080600460008573ffffffffffffffffffffffffffffffffffffffff1673ffffffffffffffffffffffffffffffffffffffff168152602001908152602001600020600001600560008573ffffffffffffffffffffffffffffffffffffffff1673ffffffffffffffffffffffffffffffffffffffff16815260200190815260200160002060000181805461080c90613284565b80601f016020809104026020016040519081016040528092919081815260200182805461083890613284565b80156108855780601f1061085a57610100808354040283529160200191610885565b820191906000526020600020905b81548152906001019060200180831161086857829003601f168201915b5050505050915080805461089890613284565b80601f01602080910402602001604051908101604052809291908181526020018280546108c490613284565b80156109115780601f106108e657610100808354040283529160200191610911565b820191906000526020600020905b8154815290600101906020018083116108f457829003601f168201915b50505050509050915091509250929050565b808210610965576040517f08c379a000000000000000000000000000000000000000000000000000000000815260040161095c90613301565b60405180910390fd5b600960003373ffffffffffffffffffffffffffffffffffffffff1673ffffffffffffffffffffffffffffffffffffffff1681526020019081526020016000206040518060800160405280848152602001838152602001600073ffffffffffffffffffffffffffffffffffffffff168152602001600015158152509080600181540180825580915050600190039060005260206000209060030201600090919091909150600082015181600001556020820151816001015560408201518160020160006101000a81548173ffffffffffffffffffffffffffffffffffffffff021916908373ffffffffffffffffffffffffffffffffffffffff16021790555060608201518160020160146101000a81548160ff02191690831515021790555050505050565b610a9333826106a0565b50565b60038181548110610aa657600080fd5b906000526020600020016000915054906101000a900473ffffffffffffffffffffffffffffffffffffffff1681565b606080606080606080600460008873ffffffffffffffffffffffffffffffffffffffff1673ffffffffffffffffffffffffffffffffffffffff168152602001908152602001600020600001600460008973ffffffffffffffffffffffffffffffffffffffff1673ffffffffffffffffffffffffffffffffffffffff168152602001908152602001600020600101600460008a73ffffffffffffffffffffffffffffffffffffffff1673ffffffffffffffffffffffffffffffffffffffff168152602001908152602001600020600501600460008b73ffffffffffffffffffffffffffffffffffffffff1673ffffffffffffffffffffffffffffffffffffffff168152602001908152602001600020600601600460008c73ffffffffffffffffffffffffffffffffffffffff1673ffffffffffffffffffffffffffffffffffffffff168152602001908152602001600020600701600460008d73ffffffffffffffffffffffffffffffffffffffff1673ffffffffffffffffffffffffffffffffffffffff168152602001908152602001600020600801858054610c7690613284565b80601f0160208091040260200160405190810160405280929190818152602001828054610ca290613284565b8015610cef5780601f10610cc457610100808354040283529160200191610cef565b820191906000526020600020905b815481529060010190602001808311610cd257829003601f168201915b50505050509550848054610d0290613284565b80601f0160208091040260200160405190810160405280929190818152602001828054610d2e90613284565b8015610d7b5780601f10610d5057610100808354040283529160200191610d7b565b820191906000526020600020905b815481529060010190602001808311610d5e57829003601f168201915b50505050509450838054610d8e90613284565b80601f0160208091040260200160405190810160405280929190818152602001828054610dba90613284565b8015610e075780601f10610ddc57610100808354040283529160200191610e07565b820191906000526020600020905b815481529060010190602001808311610dea57829003601f168201915b50505050509350828054610e1a90613284565b80601f0160208091040260200160405190810160405280929190818152602001828054610e4690613284565b8015610e935780601f10610e6857610100808354040283529160200191610e93565b820191906000526020600020905b815481529060010190602001808311610e7657829003601f168201915b50505050509250818054610ea690613284565b80601f0160208091040260200160405190810160405280929190818152602001828054610ed290613284565b8015610f1f5780601f10610ef457610100808354040283529160200191610f1f565b820191906000526020600020905b815481529060010190602001808311610f0257829003601f168201915b50505050509150808054610f3290613284565b80601f0160208091040260200160405190810160405280929190818152602001828054610f5e90613284565b8015610fab5780601f10610f8057610100808354040283529160200191610fab565b820191906000526020600020905b815481529060010190602001808311610f8e57829003601f168201915b5050505050905095509550955095509550955091939550919395565b6060600660008373ffffffffffffffffffffffffffffffffffffffff1673ffffffffffffffffffffffffffffffffffffffff168152602001908152602001600020600001805461101690613284565b80601f016020809104026020016040519081016040528092919081815260200182805461104290613284565b801561108f5780601f106110645761010080835404028352916020019161108f565b820191906000526020600020905b81548152906001019060200180831161107257829003601f168201915b50505050509050919050565b6060600060606000600560008673ffffffffffffffffffffffffffffffffffffffff1673ffffffffffffffffffffffffffffffffffffffff168152602001908152602001600020600001600560008773ffffffffffffffffffffffffffffffffffffffff1673ffffffffffffffffffffffffffffffffffffffff16815260200190815260200160002060060154600560008873ffffffffffffffffffffffffffffffffffffffff1673ffffffffffffffffffffffffffffffffffffffff168152602001908152602001600020600101600560008973ffffffffffffffffffffffffffffffffffffffff1673ffffffffffffffffffffffffffffffffffffffff168152602001908152602001600020600701548380546111b990613284565b80601f01602080910402602001604051908101604052809291908181526020018280546111e590613284565b80156112325780601f1061120757610100808354040283529160200191611232565b820191906000526020600020905b81548152906001019060200180831161121557829003601f168201915b5050505050935081805461124590613284565b80601f016020809104026020016040519081016040528092919081815260200182805461127190613284565b80156112be5780601f10611293576101008083540402835291602001916112be565b820191906000526020600020905b8154815290600101906020018083116112a157829003601f168201915b5050505050915093509350935093509193509193565b6060600460008373ffffffffffffffffffffffffffffffffffffffff1673ffffffffffffffffffffffffffffffffffffffff168152602001908152602001600020600401805461132390613284565b80601f016020809104026020016040519081016040528092919081815260200182805461134f90613284565b801561139c5780601f106113715761010080835404028352916020019161139c565b820191906000526020600020905b81548152906001019060200180831161137f57829003601f168201915b50505050509050919050565b606060003390506113b7612576565b8c81600001819052508b81602001819052508a8160a00181905250898160c00181905250888160e00181905250878161010001819052508681610120018190525085816101400181815250508481610160018190525083816080018190525080600460003373ffffffffffffffffffffffffffffffffffffffff1673ffffffffffffffffffffffffffffffffffffffff168152602001908152602001600020600082015181600001908161146b91906134cd565b50602082015181600101908161148191906134cd565b50604082015181600201908051906020019061149e9291906125d7565b5060608201518160030190805190602001906114bb929190612661565b5060808201518160040190816114d191906134cd565b5060a08201518160050190816114e791906134cd565b5060c08201518160060190816114fd91906134cd565b5060e082015181600701908161151391906134cd565b5061010082015181600801908161152a91906134cd565b5061012082015181600901908161154191906134cd565b5061014082015181600a015561016082015181600b01908161156391906134cd565b509050506001829080600181540180825580915050600190039060005260206000200160009091909190916101000a81548173ffffffffffffffffffffffffffffffffffffffff021916908373ffffffffffffffffffffffffffffffffffffffff1602179055508c925050509a9950505050505050505050565b606060003390506115ec6126ae565b8a816000018190525085816020018190525088816040018190525089816060018181525050868160800181905250878160a00181905250848160c0018181525050838160e001818152505080600560003373ffffffffffffffffffffffffffffffffffffffff1673ffffffffffffffffffffffffffffffffffffffff168152602001908152602001600020600082015181600001908161168c91906134cd565b5060208201518160010190816116a291906134cd565b5060408201518160020190816116b891906134cd565b506060820151816003015560808201518160040190816116d891906134cd565b5060a08201518160050190816116ee91906134cd565b5060c0820151816006015560e082015181600701556101008201518160080190805190602001906117209291906125d7565b509050506002829080600181540180825580915050600190039060005260206000200160009091909190916101000a81548173ffffffffffffffffffffffffffffffffffffffff021916908373ffffffffffffffffffffffffffffffffffffffff16021790555080600001519250505098975050505050505050565b600181815481106117ac57600080fd5b906000526020600020016000915054906101000a900473ffffffffffffffffffffffffffffffffffffffff1681565b600560008273ffffffffffffffffffffffffffffffffffffffff1673ffffffffffffffffffffffffffffffffffffffff168152602001908152602001600020600801339080600181540180825580915050600190039060005260206000200160009091909190916101000a81548173ffffffffffffffffffffffffffffffffffffffff021916908373ffffffffffffffffffffffffffffffffffffffff160217905550600460003373ffffffffffffffffffffffffffffffffffffffff1673ffffffffffffffffffffffffffffffffffffffff168152602001908152602001600020600201819080600181540180825580915050600190039060005260206000200160009091909190916101000a81548173ffffffffffffffffffffffffffffffffffffffff021916908373ffffffffffffffffffffffffffffffffffffffff16021790555050565b606060028054806020026020016040519081016040528092919081815260200182805480156119a857602002820191906000526020600020905b8160009054906101000a900473ffffffffffffffffffffffffffffffffffffffff1673ffffffffffffffffffffffffffffffffffffffff168152602001906001019080831161195e575b5050505050905090565b6060600960008373ffffffffffffffffffffffffffffffffffffffff1673ffffffffffffffffffffffffffffffffffffffff168152602001908152602001600020805480602002602001604051908101604052809291908181526020016000905b82821015611aca578382906000526020600020906003020160405180608001604052908160008201548152602001600182015481526020016002820160009054906101000a900473ffffffffffffffffffffffffffffffffffffffff1673ffffffffffffffffffffffffffffffffffffffff1673ffffffffffffffffffffffffffffffffffffffff1681526020016002820160149054906101000a900460ff16151515158152505081526020019060010190611a13565b505050509050919050565b6060600033905060008403611cbc57611aec612576565b85816000018190525083816080018190525080600460003373ffffffffffffffffffffffffffffffffffffffff1673ffffffffffffffffffffffffffffffffffffffff1681526020019081526020016000206000820151816000019081611b5391906134cd565b506020820151816001019081611b6991906134cd565b506040820151816002019080519060200190611b869291906125d7565b506060820151816003019080519060200190611ba3929190612661565b506080820151816004019081611bb991906134cd565b5060a0820151816005019081611bcf91906134cd565b5060c0820151816006019081611be591906134cd565b5060e0820151816007019081611bfb91906134cd565b50610100820151816008019081611c1291906134cd565b50610120820151816009019081611c2991906134cd565b5061014082015181600a015561016082015181600b019081611c4b91906134cd565b509050506001829080600181540180825580915050600190039060005260206000200160009091909190916101000a81548173ffffffffffffffffffffffffffffffffffffffff021916908373ffffffffffffffffffffffffffffffffffffffff1602179055508592505050611e49565b60018403611d805784600560008373ffffffffffffffffffffffffffffffffffffffff1673ffffffffffffffffffffffffffffffffffffffff1681526020019081526020016000206000019081611d1391906134cd565b506002819080600181540180825580915050600190039060005260206000200160009091909190916101000a81548173ffffffffffffffffffffffffffffffffffffffff021916908373ffffffffffffffffffffffffffffffffffffffff16021790555084915050611e49565b60028403611e445784600660008373ffffffffffffffffffffffffffffffffffffffff1673ffffffffffffffffffffffffffffffffffffffff1681526020019081526020016000206000019081611dd791906134cd565b506003819080600181540180825580915050600190039060005260206000200160009091909190916101000a81548173ffffffffffffffffffffffffffffffffffffffff021916908373ffffffffffffffffffffffffffffffffffffffff16021790555084915050611e49565b600080fd5b9392505050565b6060600560008373ffffffffffffffffffffffffffffffffffffffff1673ffffffffffffffffffffffffffffffffffffffff168152602001908152602001600020600801805480602002602001604051908101604052809291908181526020018280548015611f1457602002820191906000526020600020905b8160009054906101000a900473ffffffffffffffffffffffffffffffffffffffff1673ffffffffffffffffffffffffffffffffffffffff1681526020019060010190808311611eca575b50505050509050919050565b60606001805480602002602001604051908101604052809291908181526020018280548015611fa457602002820191906000526020600020905b8160009054906101000a900473ffffffffffffffffffffffffffffffffffffffff1673ffffffffffffffffffffffffffffffffffffffff1681526020019060010190808311611f5a575b5050505050905090565b6000600960008473ffffffffffffffffffffffffffffffffffffffff1673ffffffffffffffffffffffffffffffffffffffff16815260200190815260200160002082815481106120015761200061359f565b5b906000526020600020906003020190508060020160149054906101000a900460ff1615612063576040517f08c379a000000000000000000000000000000000000000000000000000000000815260040161205a9061361a565b60405180910390fd5b60018160020160146101000a81548160ff021916908315150217905550338160020160006101000a81548173ffffffffffffffffffffffffffffffffffffffff021916908373ffffffffffffffffffffffffffffffffffffffff160217905550505050565b6000805b600560003373ffffffffffffffffffffffffffffffffffffffff1673ffffffffffffffffffffffffffffffffffffffff168152602001908152602001600020600801805490508110156121e2578473ffffffffffffffffffffffffffffffffffffffff16600560003373ffffffffffffffffffffffffffffffffffffffff1673ffffffffffffffffffffffffffffffffffffffff16815260200190815260200160002060080182815481106121845761218361359f565b5b9060005260206000200160009054906101000a900473ffffffffffffffffffffffffffffffffffffffff1673ffffffffffffffffffffffffffffffffffffffff16036121cf57600191505b80806121da90613669565b9150506120cc565b506001151581151503612208576121f98483612522565b61220384336106a0565b61220d565b600080fd5b6000805b600460008773ffffffffffffffffffffffffffffffffffffffff1673ffffffffffffffffffffffffffffffffffffffff168152602001908152602001600020600301805490508110156122db5784600460008873ffffffffffffffffffffffffffffffffffffffff1673ffffffffffffffffffffffffffffffffffffffff16815260200190815260200160002060030182815481106122b3576122b261359f565b5b9060005260206000200154036122c857600191505b80806122d390613669565b915050612211565b505050505050565b60008060005b8480549050811015612380578373ffffffffffffffffffffffffffffffffffffffff1685828154811061231f5761231e61359f565b5b9060005260206000200160009054906101000a900473ffffffffffffffffffffffffffffffffffffffff1673ffffffffffffffffffffffffffffffffffffffff160361236d57600192508091505b808061237890613669565b9150506122e9565b508161238b57600080fd5b60018480549050036123dc578381815481106123aa576123a961359f565b5b9060005260206000200160006101000a81549073ffffffffffffffffffffffffffffffffffffffff02191690556124d6565b83600185805490506123ee91906136b1565b815481106123ff576123fe61359f565b5b9060005260206000200160009054906101000a900473ffffffffffffffffffffffffffffffffffffffff1684828154811061243d5761243c61359f565b5b9060005260206000200160006101000a81548173ffffffffffffffffffffffffffffffffffffffff021916908373ffffffffffffffffffffffffffffffffffffffff160217905550836001858054905061249791906136b1565b815481106124a8576124a761359f565b5b9060005260206000200160006101000a81549073ffffffffffffffffffffffffffffffffffffffff02191690555b838054806124e7576124e66136e5565b5b6001900381819060005260206000200160006101000a81549073ffffffffffffffffffffffffffffffffffffffff0219169055905550505050565b80600460008473ffffffffffffffffffffffffffffffffffffffff1673ffffffffffffffffffffffffffffffffffffffff168152602001908152602001600020600401908161257191906134cd565b505050565b6040518061018001604052806060815260200160608152602001606081526020016060815260200160608152602001606081526020016060815260200160608152602001606081526020016060815260200160008152602001606081525090565b828054828255906000526020600020908101928215612650579160200282015b8281111561264f5782518260006101000a81548173ffffffffffffffffffffffffffffffffffffffff021916908373ffffffffffffffffffffffffffffffffffffffff160217905550916020019190600101906125f7565b5b50905061265d91906126fa565b5090565b82805482825590600052602060002090810192821561269d579160200282015b8281111561269c578251825591602001919060010190612681565b5b5090506126aa91906126fa565b5090565b6040518061012001604052806060815260200160608152602001606081526020016000815260200160608152602001606081526020016000815260200160008152602001606081525090565b5b808211156127135760008160009055506001016126fb565b5090565b6000604051905090565b600080fd5b600080fd5b600073ffffffffffffffffffffffffffffffffffffffff82169050919050565b60006127568261272b565b9050919050565b6127668161274b565b811461277157600080fd5b50565b6000813590506127838161275d565b92915050565b60006020828403121561279f5761279e612721565b5b60006127ad84828501612774565b91505092915050565b600081519050919050565b600082825260208201905092915050565b6000819050602082019050919050565b6127eb8161274b565b82525050565b60006127fd83836127e2565b60208301905092915050565b6000602082019050919050565b6000612821826127b6565b61282b81856127c1565b9350612836836127d2565b8060005b8381101561286757815161284e88826127f1565b975061285983612809565b92505060018101905061283a565b5085935050505092915050565b6000602082019050818103600083015261288e8184612816565b905092915050565b600080604083850312156128ad576128ac612721565b5b60006128bb85828601612774565b92505060206128cc85828601612774565b9150509250929050565b6000819050919050565b6128e9816128d6565b81146128f457600080fd5b50565b600081359050612906816128e0565b92915050565b60006020828403121561292257612921612721565b5b6000612930848285016128f7565b91505092915050565b6129428161274b565b82525050565b600060208201905061295d6000830184612939565b92915050565b600081519050919050565b600082825260208201905092915050565b60005b8381101561299d578082015181840152602081019050612982565b60008484015250505050565b6000601f19601f8301169050919050565b60006129c582612963565b6129cf818561296e565b93506129df81856020860161297f565b6129e8816129a9565b840191505092915050565b60006040820190508181036000830152612a0d81856129ba565b90508181036020830152612a2181846129ba565b90509392505050565b60008060408385031215612a4157612a40612721565b5b6000612a4f858286016128f7565b9250506020612a60858286016128f7565b9150509250929050565b600060c0820190508181036000830152612a8481896129ba565b90508181036020830152612a9881886129ba565b90508181036040830152612aac81876129ba565b90508181036060830152612ac081866129ba565b90508181036080830152612ad481856129ba565b905081810360a0830152612ae881846129ba565b9050979650505050505050565b60006020820190508181036000830152612b0f81846129ba565b905092915050565b612b20816128d6565b82525050565b60006080820190508181036000830152612b4081876129ba565b9050612b4f6020830186612b17565b8181036040830152612b6181856129ba565b9050612b706060830184612b17565b95945050505050565b600080fd5b600080fd5b7f4e487b7100000000000000000000000000000000000000000000000000000000600052604160045260246000fd5b612bbb826129a9565b810181811067ffffffffffffffff82111715612bda57612bd9612b83565b5b80604052505050565b6000612bed612717565b9050612bf98282612bb2565b919050565b600067ffffffffffffffff821115612c1957612c18612b83565b5b612c22826129a9565b9050602081019050919050565b82818337600083830152505050565b6000612c51612c4c84612bfe565b612be3565b905082815260208101848484011115612c6d57612c6c612b7e565b5b612c78848285612c2f565b509392505050565b600082601f830112612c9557612c94612b79565b5b8135612ca5848260208601612c3e565b91505092915050565b6000806000806000806000806000806101408b8d031215612cd257612cd1612721565b5b60008b013567ffffffffffffffff811115612cf057612cef612726565b5b612cfc8d828e01612c80565b9a505060208b013567ffffffffffffffff811115612d1d57612d1c612726565b5b612d298d828e01612c80565b99505060408b013567ffffffffffffffff811115612d4a57612d49612726565b5b612d568d828e01612c80565b98505060608b013567ffffffffffffffff811115612d7757612d76612726565b5b612d838d828e01612c80565b97505060808b013567ffffffffffffffff811115612da457612da3612726565b5b612db08d828e01612c80565b96505060a08b013567ffffffffffffffff811115612dd157612dd0612726565b5b612ddd8d828e01612c80565b95505060c08b013567ffffffffffffffff811115612dfe57612dfd612726565b5b612e0a8d828e01612c80565b94505060e0612e1b8d828e016128f7565b9350506101008b013567ffffffffffffffff811115612e3d57612e3c612726565b5b612e498d828e01612c80565b9250506101208b013567ffffffffffffffff811115612e6b57612e6a612726565b5b612e778d828e01612c80565b9150509295989b9194979a5092959850565b600080600080600080600080610100898b031215612eaa57612ea9612721565b5b600089013567ffffffffffffffff811115612ec857612ec7612726565b5b612ed48b828c01612c80565b9850506020612ee58b828c016128f7565b975050604089013567ffffffffffffffff811115612f0657612f05612726565b5b612f128b828c01612c80565b965050606089013567ffffffffffffffff811115612f3357612f32612726565b5b612f3f8b828c01612c80565b955050608089013567ffffffffffffffff811115612f6057612f5f612726565b5b612f6c8b828c01612c80565b94505060a089013567ffffffffffffffff811115612f8d57612f8c612726565b5b612f998b828c01612c80565b93505060c0612faa8b828c016128f7565b92505060e0612fbb8b828c016128f7565b9150509295985092959890939650565b600081519050919050565b600082825260208201905092915050565b6000819050602082019050919050565b613000816128d6565b82525050565b60008115159050919050565b61301b81613006565b82525050565b6080820160008201516130376000850182612ff7565b50602082015161304a6020850182612ff7565b50604082015161305d60408501826127e2565b5060608201516130706060850182613012565b50505050565b60006130828383613021565b60808301905092915050565b6000602082019050919050565b60006130a682612fcb565b6130b08185612fd6565b93506130bb83612fe7565b8060005b838110156130ec5781516130d38882613076565b97506130de8361308e565b9250506001810190506130bf565b5085935050505092915050565b60006020820190508181036000830152613113818461309b565b905092915050565b60008060006060848603121561313457613133612721565b5b600084013567ffffffffffffffff81111561315257613151612726565b5b61315e86828701612c80565b935050602061316f868287016128f7565b925050604084013567ffffffffffffffff8111156131905761318f612726565b5b61319c86828701612c80565b9150509250925092565b600080604083850312156131bd576131bc612721565b5b60006131cb85828601612774565b92505060206131dc858286016128f7565b9150509250929050565b6000806000606084860312156131ff576131fe612721565b5b600061320d86828701612774565b935050602061321e868287016128f7565b925050604084013567ffffffffffffffff81111561323f5761323e612726565b5b61324b86828701612c80565b9150509250925092565b7f4e487b7100000000000000000000000000000000000000000000000000000000600052602260045260246000fd5b6000600282049050600182168061329c57607f821691505b6020821081036132af576132ae613255565b5b50919050565b7f496e76616c69642074696d652072616e67650000000000000000000000000000600082015250565b60006132eb60128361296e565b91506132f6826132b5565b602082019050919050565b6000602082019050818103600083015261331a816132de565b9050919050565b60008190508160005260206000209050919050565b60006020601f8301049050919050565b600082821b905092915050565b6000600883026133837fffffffffffffffffffffffffffffffffffffffffffffffffffffffffffffffff82613346565b61338d8683613346565b95508019841693508086168417925050509392505050565b6000819050919050565b60006133ca6133c56133c0846128d6565b6133a5565b6128d6565b9050919050565b6000819050919050565b6133e4836133af565b6133f86133f0826133d1565b848454613353565b825550505050565b600090565b61340d613400565b6134188184846133db565b505050565b5b8181101561343c57613431600082613405565b60018101905061341e565b5050565b601f8211156134815761345281613321565b61345b84613336565b8101602085101561346a578190505b61347e61347685613336565b83018261341d565b50505b505050565b600082821c905092915050565b60006134a460001984600802613486565b1980831691505092915050565b60006134bd8383613493565b9150826002028217905092915050565b6134d682612963565b67ffffffffffffffff8111156134ef576134ee612b83565b5b6134f98254613284565b613504828285613440565b600060209050601f8311600181146135375760008415613525578287015190505b61352f85826134b1565b865550613597565b601f19841661354586613321565b60005b8281101561356d57848901518255600182019150602085019450602081019050613548565b8683101561358a5784890151613586601f891682613493565b8355505b6001600288020188555050505b505050505050565b7f4e487b7100000000000000000000000000000000000000000000000000000000600052603260045260246000fd5b7f4170706f696e746d656e7420616c726561647920626f6f6b6564000000000000600082015250565b6000613604601a8361296e565b915061360f826135ce565b602082019050919050565b60006020820190508181036000830152613633816135f7565b9050919050565b7f4e487b7100000000000000000000000000000000000000000000000000000000600052601160045260246000fd5b6000613674826128d6565b91507fffffffffffffffffffffffffffffffffffffffffffffffffffffffffffffffff82036136a6576136a561363a565b5b600182019050919050565b60006136bc826128d6565b91506136c7836128d6565b92508282039050818111156136df576136de61363a565b5b92915050565b7f4e487b7100000000000000000000000000000000000000000000000000000000600052603160045260246000fdfea26469706673582212209cce2a73c839e3e279f50d9e1abf054873bb3cbb13937fa590875c709311b5cb64736f6c63430008120033",
  "linkReferences": {},
  "deployedLinkReferences": {}
}