{
  "_format": "hh-sol-artifact-1",
  "contractName": "Agent",
  "sourceName": "contracts/Agent.sol",
  "abi": [
    {
      "inputs": [
        {
          "internalType": "string",
          "name": "_name",
          "type": "string"
        },
        {
          "internalType": "uint256",
          "name": "_designation",
          "type": "uint256"
        },
        {
          "internalType": "string",
          "name": "_hash",
          "type": "string"
        }
      ],
      "name": "add_agent",
      "outputs": [
        {
          "internalType": "string",
          "name": "",
          "type": "string"
        }
      ],
      "stateMutability": "nonpayable",
      "type": "function"
    },
    {
      "inputs": [
        {
          "internalType": "string",
          "name": "_name",
          "type": "string"
        },
        {
          "internalType": "uint256",
          "name": "_mobileNo",
          "type": "uint256"
        },
        {
          "internalType": "string",
          "name": "_email",
          "type": "string"
        },
        {
          "internalType": "string",
          "name": "_website",
          "type": "string"
        },
        {
          "internalType": "string",
          "name": "_address",
          "type": "string"
        },
        {
          "internalType": "string",
          "name": "_speciality",
          "type": "string"
        },
        {
          "internalType": "uint256",
          "name": "_experience",
          "type": "uint256"
        },
        {
          "internalType": "uint256",
          "name": "_fees",
          "type": "uint256"
        },
        {
          "internalType": "string",
          "name": "_timings",
          "type": "string"
        }
      ],
      "name": "add_doctor",
      "outputs": [
        {
          "internalType": "string",
          "name": "",
          "type": "string"
        }
      ],
      "stateMutability": "nonpayable",
      "type": "function"
    },
    {
      "inputs": [
        {
          "internalType": "string",
          "name": "_name",
          "type": "string"
        },
        {
          "internalType": "string",
          "name": "_dateOfBirth",
          "type": "string"
        },
        {
          "internalType": "string",
          "name": "_email",
          "type": "string"
        },
        {
          "internalType": "uint256",
          "name": "_mobileNo",
          "type": "uint256"
        },
        {
          "internalType": "uint256",
          "name": "_alternateNo",
          "type": "uint256"
        },
        {
          "internalType": "string",
          "name": "_address",
          "type": "string"
        },
        {
          "internalType": "string",
          "name": "_insuranceName",
          "type": "string"
        },
        {
          "internalType": "uint256",
          "name": "_deductibilities",
          "type": "uint256"
        },
        {
          "internalType": "string",
          "name": "_validity",
          "type": "string"
        },
        {
          "internalType": "string",
          "name": "_hash",
          "type": "string"
        }
      ],
      "name": "add_patient",
      "outputs": [
        {
          "internalType": "string",
          "name": "",
          "type": "string"
        }
      ],
      "stateMutability": "nonpayable",
      "type": "function"
    },
    {
      "inputs": [
        {
          "internalType": "uint256",
          "name": "",
          "type": "uint256"
        }
      ],
      "name": "doctorList",
      "outputs": [
        {
          "internalType": "address",
          "name": "",
          "type": "address"
        }
      ],
      "stateMutability": "view",
      "type": "function"
    },
    {
      "inputs": [
        {
          "internalType": "address",
          "name": "addr",
          "type": "address"
        }
      ],
      "name": "get_accessed_doctorlist_for_patient",
      "outputs": [
        {
          "internalType": "address[]",
          "name": "",
          "type": "address[]"
        }
      ],
      "stateMutability": "view",
      "type": "function"
    },
    {
      "inputs": [
        {
          "internalType": "address",
          "name": "addr",
          "type": "address"
        }
      ],
      "name": "get_accessed_patientlist_for_doctor",
      "outputs": [
        {
          "internalType": "address[]",
          "name": "",
          "type": "address[]"
        }
      ],
      "stateMutability": "view",
      "type": "function"
    },
    {
      "inputs": [
        {
          "internalType": "address",
          "name": "addr",
          "type": "address"
        }
      ],
      "name": "get_doctor",
      "outputs": [
        {
          "internalType": "string",
          "name": "",
          "type": "string"
        },
        {
          "internalType": "uint256",
          "name": "",
          "type": "uint256"
        },
        {
          "internalType": "string",
          "name": "",
          "type": "string"
        },
        {
          "internalType": "uint256",
          "name": "",
          "type": "uint256"
        }
      ],
      "stateMutability": "view",
      "type": "function"
    },
    {
      "inputs": [],
      "name": "get_doctor_list",
      "outputs": [
        {
          "internalType": "address[]",
          "name": "",
          "type": "address[]"
        }
      ],
      "stateMutability": "view",
      "type": "function"
    },
    {
      "inputs": [
        {
          "internalType": "address",
          "name": "paddr",
          "type": "address"
        }
      ],
      "name": "get_hash",
      "outputs": [
        {
          "internalType": "string",
          "name": "",
          "type": "string"
        }
      ],
      "stateMutability": "view",
      "type": "function"
    },
    {
      "inputs": [
        {
          "internalType": "address",
          "name": "addr",
          "type": "address"
        }
      ],
      "name": "get_insurance",
      "outputs": [
        {
          "internalType": "string",
          "name": "",
          "type": "string"
        }
      ],
      "stateMutability": "view",
      "type": "function"
    },
    {
      "inputs": [
        {
          "internalType": "address",
          "name": "addr",
          "type": "address"
        }
      ],
      "name": "get_patient",
      "outputs": [
        {
          "internalType": "string",
          "name": "",
          "type": "string"
        },
        {
          "internalType": "string",
          "name": "",
          "type": "string"
        },
        {
          "internalType": "uint256[]",
          "name": "",
          "type": "uint256[]"
        },
        {
          "internalType": "address",
          "name": "",
          "type": "address"
        },
        {
          "internalType": "string",
          "name": "",
          "type": "string"
        }
      ],
      "stateMutability": "view",
      "type": "function"
    },
    {
      "inputs": [
        {
          "internalType": "address",
          "name": "paddr",
          "type": "address"
        },
        {
          "internalType": "address",
          "name": "daddr",
          "type": "address"
        }
      ],
      "name": "get_patient_doctor_name",
      "outputs": [
        {
          "internalType": "string",
          "name": "",
          "type": "string"
        },
        {
          "internalType": "string",
          "name": "",
          "type": "string"
        }
      ],
      "stateMutability": "view",
      "type": "function"
    },
    {
      "inputs": [],
      "name": "get_patient_list",
      "outputs": [
        {
          "internalType": "address[]",
          "name": "",
          "type": "address[]"
        }
      ],
      "stateMutability": "view",
      "type": "function"
    },
    {
      "inputs": [
        {
          "internalType": "uint256",
          "name": "",
          "type": "uint256"
        }
      ],
      "name": "insuranceList",
      "outputs": [
        {
          "internalType": "address",
          "name": "",
          "type": "address"
        }
      ],
      "stateMutability": "view",
      "type": "function"
    },
    {
      "inputs": [
        {
          "internalType": "address",
          "name": "paddr",
          "type": "address"
        },
        {
          "internalType": "uint256",
          "name": "_diagnosis",
          "type": "uint256"
        },
        {
          "internalType": "string",
          "name": "_hash",
          "type": "string"
        }
      ],
      "name": "insurance_claim",
      "outputs": [],
      "stateMutability": "nonpayable",
      "type": "function"
    },
    {
      "inputs": [
        {
          "internalType": "uint256",
          "name": "",
          "type": "uint256"
        }
      ],
      "name": "patientList",
      "outputs": [
        {
          "internalType": "address",
          "name": "",
          "type": "address"
        }
      ],
      "stateMutability": "view",
      "type": "function"
    },
    {
      "inputs": [
        {
          "internalType": "address",
          "name": "addr",
          "type": "address"
        }
      ],
      "name": "permit_access",
      "outputs": [],
      "stateMutability": "payable",
      "type": "function"
    },
    {
      "inputs": [
        {
          "internalType": "address",
          "name": "paddr",
          "type": "address"
        },
        {
          "internalType": "address",
          "name": "daddr",
          "type": "address"
        }
      ],
      "name": "remove_patient",
      "outputs": [],
      "stateMutability": "nonpayable",
      "type": "function"
    },
    {
      "inputs": [
        {
          "internalType": "address",
          "name": "daddr",
          "type": "address"
        }
      ],
      "name": "revoke_access",
      "outputs": [],
      "stateMutability": "payable",
      "type": "function"
    }
  ],
  "bytecode": "0x608060405234801561001057600080fd5b50612f6b806100206000396000f3fe6080604052600436106101135760003560e01c806356c98c48116100a0578063d2e4c2bd11610064578063d2e4c2bd1461040e578063dd44176b1461044b578063de14955914610488578063e81ac054146104c5578063f24be9e7146104f057610113565b806356c98c481461030d5780637e1519ce1461034d578063babb1d411461038a578063bcffb7ca146103c7578063c39e9635146103e357610113565b806327b1dcee116100e757806327b1dcee146101f957806334682646146102155780633e42542f146102525780634042d2d41461028f5780635483c566146102d057610113565b80627ee3ce146101185780630362fe9b14610155578063127ca4b41461017e5780631e3fc3b8146101bb575b600080fd5b34801561012457600080fd5b5061013f600480360381019061013a91906121b8565b610519565b60405161014c91906122a3565b60405180910390f35b34801561016157600080fd5b5061017c600480360381019061017791906122c5565b6105ef565b005b34801561018a57600080fd5b506101a560048036038101906101a0919061233b565b610689565b6040516101b29190612377565b60405180910390f35b3480156101c757600080fd5b506101e260048036038101906101dd91906122c5565b6106c8565b6040516101f0929190612422565b60405180910390f35b610213600480360381019061020e91906121b8565b610872565b005b34801561022157600080fd5b5061023c6004803603810190610237919061258e565b61087f565b6040516102499190612731565b60405180910390f35b34801561025e57600080fd5b506102796004803603810190610274919061233b565b610a9e565b6040516102869190612377565b60405180910390f35b34801561029b57600080fd5b506102b660048036038101906102b191906121b8565b610add565b6040516102c7959493929190612811565b60405180910390f35b3480156102dc57600080fd5b506102f760048036038101906102f291906121b8565b610e57565b6040516103049190612731565b60405180910390f35b34801561031957600080fd5b50610334600480360381019061032f91906121b8565b610f2b565b604051610344949392919061288f565b60405180910390f35b34801561035957600080fd5b50610374600480360381019061036f91906121b8565b611164565b6040516103819190612731565b60405180910390f35b34801561039657600080fd5b506103b160048036038101906103ac919061233b565b611238565b6040516103be9190612377565b60405180910390f35b6103e160048036038101906103dc91906121b8565b611277565b005b3480156103ef57600080fd5b506103f86113c0565b60405161040591906122a3565b60405180910390f35b34801561041a57600080fd5b50610435600480360381019061043091906128e2565b61144e565b6040516104429190612731565b60405180910390f35b34801561045757600080fd5b50610472600480360381019061046d91906121b8565b6117b1565b60405161047f91906122a3565b60405180910390f35b34801561049457600080fd5b506104af60048036038101906104aa919061296d565b611881565b6040516104bc9190612731565b60405180910390f35b3480156104d157600080fd5b506104da611a62565b6040516104e791906122a3565b60405180910390f35b3480156104fc57600080fd5b5061051760048036038101906105129190612adf565b611af0565b005b60606000600460008473ffffffffffffffffffffffffffffffffffffffff1673ffffffffffffffffffffffffffffffffffffffff1681526020019081526020016000206002019050808054806020026020016040519081016040528092919081815260200182805480156105e257602002820191906000526020600020905b8160009054906101000a900473ffffffffffffffffffffffffffffffffffffffff1673ffffffffffffffffffffffffffffffffffffffff1681526020019060010190808311610598575b5050505050915050919050565b61063a600560008373ffffffffffffffffffffffffffffffffffffffff1673ffffffffffffffffffffffffffffffffffffffff16815260200190815260200160002060090183611d0b565b610685600460008473ffffffffffffffffffffffffffffffffffffffff1673ffffffffffffffffffffffffffffffffffffffff16815260200190815260200160002060020182611d0b565b5050565b6002818154811061069957600080fd5b906000526020600020016000915054906101000a900473ffffffffffffffffffffffffffffffffffffffff1681565b606080600460008573ffffffffffffffffffffffffffffffffffffffff1673ffffffffffffffffffffffffffffffffffffffff168152602001908152602001600020600001600560008573ffffffffffffffffffffffffffffffffffffffff1673ffffffffffffffffffffffffffffffffffffffff16815260200190815260200160002060000181805461075b90612b7d565b80601f016020809104026020016040519081016040528092919081815260200182805461078790612b7d565b80156107d45780601f106107a9576101008083540402835291602001916107d4565b820191906000526020600020905b8154815290600101906020018083116107b757829003601f168201915b505050505091508080546107e790612b7d565b80601f016020809104026020016040519081016040528092919081815260200182805461081390612b7d565b80156108605780601f1061083557610100808354040283529160200191610860565b820191906000526020600020905b81548152906001019060200180831161084357829003601f168201915b50505050509050915091509250929050565b61087c33826105ef565b50565b6060600033905061088e611f9e565b8c81600001819052508b81602001819052508a8160a00181905250898160c0018181525050888160e0018181525050878161010001819052508681610120018190525085816101400181815250508481610160018190525083816080018190525080600460003373ffffffffffffffffffffffffffffffffffffffff1673ffffffffffffffffffffffffffffffffffffffff16815260200190815260200160002060008201518160000190816109449190612d5a565b50602082015181600101908161095a9190612d5a565b506040820151816002019080519060200190610977929190611fff565b506060820151816003019080519060200190610994929190612089565b5060808201518160040190816109aa9190612d5a565b5060a08201518160050190816109c09190612d5a565b5060c0820151816006015560e082015181600701556101008201518160080190816109eb9190612d5a565b50610120820151816009019081610a029190612d5a565b5061014082015181600a015561016082015181600b019081610a249190612d5a565b509050506001829080600181540180825580915050600190039060005260206000200160009091909190916101000a81548173ffffffffffffffffffffffffffffffffffffffff021916908373ffffffffffffffffffffffffffffffffffffffff1602179055508c925050509a9950505050505050505050565b60038181548110610aae57600080fd5b906000526020600020016000915054906101000a900473ffffffffffffffffffffffffffffffffffffffff1681565b606080606060006060600460008773ffffffffffffffffffffffffffffffffffffffff1673ffffffffffffffffffffffffffffffffffffffff168152602001908152602001600020600001600460008873ffffffffffffffffffffffffffffffffffffffff1673ffffffffffffffffffffffffffffffffffffffff168152602001908152602001600020600101600460008973ffffffffffffffffffffffffffffffffffffffff1673ffffffffffffffffffffffffffffffffffffffff168152602001908152602001600020600301600760008a73ffffffffffffffffffffffffffffffffffffffff1673ffffffffffffffffffffffffffffffffffffffff16815260200190815260200160002060009054906101000a900473ffffffffffffffffffffffffffffffffffffffff16600460008b73ffffffffffffffffffffffffffffffffffffffff1673ffffffffffffffffffffffffffffffffffffffff168152602001908152602001600020600401848054610c5a90612b7d565b80601f0160208091040260200160405190810160405280929190818152602001828054610c8690612b7d565b8015610cd35780601f10610ca857610100808354040283529160200191610cd3565b820191906000526020600020905b815481529060010190602001808311610cb657829003601f168201915b50505050509450838054610ce690612b7d565b80601f0160208091040260200160405190810160405280929190818152602001828054610d1290612b7d565b8015610d5f5780601f10610d3457610100808354040283529160200191610d5f565b820191906000526020600020905b815481529060010190602001808311610d4257829003601f168201915b5050505050935082805480602002602001604051908101604052809291908181526020018280548015610db157602002820191906000526020600020905b815481526020019060010190808311610d9d575b50505050509250808054610dc490612b7d565b80601f0160208091040260200160405190810160405280929190818152602001828054610df090612b7d565b8015610e3d5780601f10610e1257610100808354040283529160200191610e3d565b820191906000526020600020905b815481529060010190602001808311610e2057829003601f168201915b505050505090509450945094509450945091939590929450565b6060600660008373ffffffffffffffffffffffffffffffffffffffff1673ffffffffffffffffffffffffffffffffffffffff1681526020019081526020016000206000018054610ea690612b7d565b80601f0160208091040260200160405190810160405280929190818152602001828054610ed290612b7d565b8015610f1f5780601f10610ef457610100808354040283529160200191610f1f565b820191906000526020600020905b815481529060010190602001808311610f0257829003601f168201915b50505050509050919050565b6060600060606000600560008673ffffffffffffffffffffffffffffffffffffffff1673ffffffffffffffffffffffffffffffffffffffff168152602001908152602001600020600001600560008773ffffffffffffffffffffffffffffffffffffffff1673ffffffffffffffffffffffffffffffffffffffff16815260200190815260200160002060060154600560008873ffffffffffffffffffffffffffffffffffffffff1673ffffffffffffffffffffffffffffffffffffffff168152602001908152602001600020600101600560008973ffffffffffffffffffffffffffffffffffffffff1673ffffffffffffffffffffffffffffffffffffffff1681526020019081526020016000206007015483805461104990612b7d565b80601f016020809104026020016040519081016040528092919081815260200182805461107590612b7d565b80156110c25780601f10611097576101008083540402835291602001916110c2565b820191906000526020600020905b8154815290600101906020018083116110a557829003601f168201915b505050505093508180546110d590612b7d565b80601f016020809104026020016040519081016040528092919081815260200182805461110190612b7d565b801561114e5780601f106111235761010080835404028352916020019161114e565b820191906000526020600020905b81548152906001019060200180831161113157829003601f168201915b5050505050915093509350935093509193509193565b6060600460008373ffffffffffffffffffffffffffffffffffffffff1673ffffffffffffffffffffffffffffffffffffffff16815260200190815260200160002060040180546111b390612b7d565b80601f01602080910402602001604051908101604052809291908181526020018280546111df90612b7d565b801561122c5780601f106112015761010080835404028352916020019161122c565b820191906000526020600020905b81548152906001019060200180831161120f57829003601f168201915b50505050509050919050565b6001818154811061124857600080fd5b906000526020600020016000915054906101000a900473ffffffffffffffffffffffffffffffffffffffff1681565b600560008273ffffffffffffffffffffffffffffffffffffffff1673ffffffffffffffffffffffffffffffffffffffff168152602001908152602001600020600901339080600181540180825580915050600190039060005260206000200160009091909190916101000a81548173ffffffffffffffffffffffffffffffffffffffff021916908373ffffffffffffffffffffffffffffffffffffffff160217905550600460003373ffffffffffffffffffffffffffffffffffffffff1673ffffffffffffffffffffffffffffffffffffffff168152602001908152602001600020600201819080600181540180825580915050600190039060005260206000200160009091909190916101000a81548173ffffffffffffffffffffffffffffffffffffffff021916908373ffffffffffffffffffffffffffffffffffffffff16021790555050565b6060600280548060200260200160405190810160405280929190818152602001828054801561144457602002820191906000526020600020905b8160009054906101000a900473ffffffffffffffffffffffffffffffffffffffff1673ffffffffffffffffffffffffffffffffffffffff16815260200190600101908083116113fa575b5050505050905090565b606060003390506000840361161d57611465611f9e565b85816000018190525083816080018190525080600460003373ffffffffffffffffffffffffffffffffffffffff1673ffffffffffffffffffffffffffffffffffffffff16815260200190815260200160002060008201518160000190816114cc9190612d5a565b5060208201518160010190816114e29190612d5a565b5060408201518160020190805190602001906114ff929190611fff565b50606082015181600301908051906020019061151c929190612089565b5060808201518160040190816115329190612d5a565b5060a08201518160050190816115489190612d5a565b5060c0820151816006015560e082015181600701556101008201518160080190816115739190612d5a565b5061012082015181600901908161158a9190612d5a565b5061014082015181600a015561016082015181600b0190816115ac9190612d5a565b509050506001829080600181540180825580915050600190039060005260206000200160009091909190916101000a81548173ffffffffffffffffffffffffffffffffffffffff021916908373ffffffffffffffffffffffffffffffffffffffff16021790555085925050506117aa565b600184036116e15784600560008373ffffffffffffffffffffffffffffffffffffffff1673ffffffffffffffffffffffffffffffffffffffff16815260200190815260200160002060000190816116749190612d5a565b506002819080600181540180825580915050600190039060005260206000200160009091909190916101000a81548173ffffffffffffffffffffffffffffffffffffffff021916908373ffffffffffffffffffffffffffffffffffffffff160217905550849150506117aa565b600284036117a55784600660008373ffffffffffffffffffffffffffffffffffffffff1673ffffffffffffffffffffffffffffffffffffffff16815260200190815260200160002060000190816117389190612d5a565b506003819080600181540180825580915050600190039060005260206000200160009091909190916101000a81548173ffffffffffffffffffffffffffffffffffffffff021916908373ffffffffffffffffffffffffffffffffffffffff160217905550849150506117aa565b600080fd5b9392505050565b6060600560008373ffffffffffffffffffffffffffffffffffffffff1673ffffffffffffffffffffffffffffffffffffffff16815260200190815260200160002060090180548060200260200160405190810160405280929190818152602001828054801561187557602002820191906000526020600020905b8160009054906101000a900473ffffffffffffffffffffffffffffffffffffffff1673ffffffffffffffffffffffffffffffffffffffff168152602001906001019080831161182b575b50505050509050919050565b606060003390506118906120d6565b8b81600001819052508681602001819052508981604001819052508a816060018181525050878160800181905250888160a00181905250858160c0018181525050848160e00181815250508381610100018190525080600560003373ffffffffffffffffffffffffffffffffffffffff1673ffffffffffffffffffffffffffffffffffffffff168152602001908152602001600020600082015181600001908161193a9190612d5a565b5060208201518160010190816119509190612d5a565b5060408201518160020190816119669190612d5a565b506060820151816003015560808201518160040190816119869190612d5a565b5060a082015181600501908161199c9190612d5a565b5060c0820151816006015560e082015181600701556101008201518160080190816119c79190612d5a565b506101208201518160090190805190602001906119e5929190611fff565b509050506002829080600181540180825580915050600190039060005260206000200160009091909190916101000a81548173ffffffffffffffffffffffffffffffffffffffff021916908373ffffffffffffffffffffffffffffffffffffffff1602179055508060000151925050509998505050505050505050565b60606001805480602002602001604051908101604052809291908181526020018280548015611ae657602002820191906000526020600020905b8160009054906101000a900473ffffffffffffffffffffffffffffffffffffffff1673ffffffffffffffffffffffffffffffffffffffff1681526020019060010190808311611a9c575b5050505050905090565b6000805b600560003373ffffffffffffffffffffffffffffffffffffffff1673ffffffffffffffffffffffffffffffffffffffff16815260200190815260200160002060090180549050811015611c0a578473ffffffffffffffffffffffffffffffffffffffff16600560003373ffffffffffffffffffffffffffffffffffffffff1673ffffffffffffffffffffffffffffffffffffffff1681526020019081526020016000206009018281548110611bac57611bab612e2c565b5b9060005260206000200160009054906101000a900473ffffffffffffffffffffffffffffffffffffffff1673ffffffffffffffffffffffffffffffffffffffff1603611bf757600191505b8080611c0290612e8a565b915050611af4565b506001151581151503611c3057611c218483611f4a565b611c2b84336105ef565b611c35565b600080fd5b6000805b600460008773ffffffffffffffffffffffffffffffffffffffff1673ffffffffffffffffffffffffffffffffffffffff16815260200190815260200160002060030180549050811015611d035784600460008873ffffffffffffffffffffffffffffffffffffffff1673ffffffffffffffffffffffffffffffffffffffff1681526020019081526020016000206003018281548110611cdb57611cda612e2c565b5b906000526020600020015403611cf057600191505b8080611cfb90612e8a565b915050611c39565b505050505050565b60008060005b8480549050811015611da8578373ffffffffffffffffffffffffffffffffffffffff16858281548110611d4757611d46612e2c565b5b9060005260206000200160009054906101000a900473ffffffffffffffffffffffffffffffffffffffff1673ffffffffffffffffffffffffffffffffffffffff1603611d9557600192508091505b8080611da090612e8a565b915050611d11565b5081611db357600080fd5b6001848054905003611e0457838181548110611dd257611dd1612e2c565b5b9060005260206000200160006101000a81549073ffffffffffffffffffffffffffffffffffffffff0219169055611efe565b8360018580549050611e169190612ed2565b81548110611e2757611e26612e2c565b5b9060005260206000200160009054906101000a900473ffffffffffffffffffffffffffffffffffffffff16848281548110611e6557611e64612e2c565b5b9060005260206000200160006101000a81548173ffffffffffffffffffffffffffffffffffffffff021916908373ffffffffffffffffffffffffffffffffffffffff1602179055508360018580549050611ebf9190612ed2565b81548110611ed057611ecf612e2c565b5b9060005260206000200160006101000a81549073ffffffffffffffffffffffffffffffffffffffff02191690555b83805480611f0f57611f0e612f06565b5b6001900381819060005260206000200160006101000a81549073ffffffffffffffffffffffffffffffffffffffff0219169055905550505050565b80600460008473ffffffffffffffffffffffffffffffffffffffff1673ffffffffffffffffffffffffffffffffffffffff1681526020019081526020016000206004019081611f999190612d5a565b505050565b6040518061018001604052806060815260200160608152602001606081526020016060815260200160608152602001606081526020016000815260200160008152602001606081526020016060815260200160008152602001606081525090565b828054828255906000526020600020908101928215612078579160200282015b828111156120775782518260006101000a81548173ffffffffffffffffffffffffffffffffffffffff021916908373ffffffffffffffffffffffffffffffffffffffff1602179055509160200191906001019061201f565b5b5090506120859190612129565b5090565b8280548282559060005260206000209081019282156120c5579160200282015b828111156120c45782518255916020019190600101906120a9565b5b5090506120d29190612129565b5090565b604051806101400160405280606081526020016060815260200160608152602001600081526020016060815260200160608152602001600081526020016000815260200160608152602001606081525090565b5b8082111561214257600081600090555060010161212a565b5090565b6000604051905090565b600080fd5b600080fd5b600073ffffffffffffffffffffffffffffffffffffffff82169050919050565b60006121858261215a565b9050919050565b6121958161217a565b81146121a057600080fd5b50565b6000813590506121b28161218c565b92915050565b6000602082840312156121ce576121cd612150565b5b60006121dc848285016121a3565b91505092915050565b600081519050919050565b600082825260208201905092915050565b6000819050602082019050919050565b61221a8161217a565b82525050565b600061222c8383612211565b60208301905092915050565b6000602082019050919050565b6000612250826121e5565b61225a81856121f0565b935061226583612201565b8060005b8381101561229657815161227d8882612220565b975061228883612238565b925050600181019050612269565b5085935050505092915050565b600060208201905081810360008301526122bd8184612245565b905092915050565b600080604083850312156122dc576122db612150565b5b60006122ea858286016121a3565b92505060206122fb858286016121a3565b9150509250929050565b6000819050919050565b61231881612305565b811461232357600080fd5b50565b6000813590506123358161230f565b92915050565b60006020828403121561235157612350612150565b5b600061235f84828501612326565b91505092915050565b6123718161217a565b82525050565b600060208201905061238c6000830184612368565b92915050565b600081519050919050565b600082825260208201905092915050565b60005b838110156123cc5780820151818401526020810190506123b1565b60008484015250505050565b6000601f19601f8301169050919050565b60006123f482612392565b6123fe818561239d565b935061240e8185602086016123ae565b612417816123d8565b840191505092915050565b6000604082019050818103600083015261243c81856123e9565b9050818103602083015261245081846123e9565b90509392505050565b600080fd5b600080fd5b7f4e487b7100000000000000000000000000000000000000000000000000000000600052604160045260246000fd5b61249b826123d8565b810181811067ffffffffffffffff821117156124ba576124b9612463565b5b80604052505050565b60006124cd612146565b90506124d98282612492565b919050565b600067ffffffffffffffff8211156124f9576124f8612463565b5b612502826123d8565b9050602081019050919050565b82818337600083830152505050565b600061253161252c846124de565b6124c3565b90508281526020810184848401111561254d5761254c61245e565b5b61255884828561250f565b509392505050565b600082601f83011261257557612574612459565b5b813561258584826020860161251e565b91505092915050565b6000806000806000806000806000806101408b8d0312156125b2576125b1612150565b5b60008b013567ffffffffffffffff8111156125d0576125cf612155565b5b6125dc8d828e01612560565b9a505060208b013567ffffffffffffffff8111156125fd576125fc612155565b5b6126098d828e01612560565b99505060408b013567ffffffffffffffff81111561262a57612629612155565b5b6126368d828e01612560565b98505060606126478d828e01612326565b97505060806126588d828e01612326565b96505060a08b013567ffffffffffffffff81111561267957612678612155565b5b6126858d828e01612560565b95505060c08b013567ffffffffffffffff8111156126a6576126a5612155565b5b6126b28d828e01612560565b94505060e06126c38d828e01612326565b9350506101008b013567ffffffffffffffff8111156126e5576126e4612155565b5b6126f18d828e01612560565b9250506101208b013567ffffffffffffffff81111561271357612712612155565b5b61271f8d828e01612560565b9150509295989b9194979a5092959850565b6000602082019050818103600083015261274b81846123e9565b905092915050565b600081519050919050565b600082825260208201905092915050565b6000819050602082019050919050565b61278881612305565b82525050565b600061279a838361277f565b60208301905092915050565b6000602082019050919050565b60006127be82612753565b6127c8818561275e565b93506127d38361276f565b8060005b838110156128045781516127eb888261278e565b97506127f6836127a6565b9250506001810190506127d7565b5085935050505092915050565b600060a082019050818103600083015261282b81886123e9565b9050818103602083015261283f81876123e9565b9050818103604083015261285381866127b3565b90506128626060830185612368565b818103608083015261287481846123e9565b90509695505050505050565b61288981612305565b82525050565b600060808201905081810360008301526128a981876123e9565b90506128b86020830186612880565b81810360408301526128ca81856123e9565b90506128d96060830184612880565b95945050505050565b6000806000606084860312156128fb576128fa612150565b5b600084013567ffffffffffffffff81111561291957612918612155565b5b61292586828701612560565b935050602061293686828701612326565b925050604084013567ffffffffffffffff81111561295757612956612155565b5b61296386828701612560565b9150509250925092565b60008060008060008060008060006101208a8c0312156129905761298f612150565b5b60008a013567ffffffffffffffff8111156129ae576129ad612155565b5b6129ba8c828d01612560565b99505060206129cb8c828d01612326565b98505060408a013567ffffffffffffffff8111156129ec576129eb612155565b5b6129f88c828d01612560565b97505060608a013567ffffffffffffffff811115612a1957612a18612155565b5b612a258c828d01612560565b96505060808a013567ffffffffffffffff811115612a4657612a45612155565b5b612a528c828d01612560565b95505060a08a013567ffffffffffffffff811115612a7357612a72612155565b5b612a7f8c828d01612560565b94505060c0612a908c828d01612326565b93505060e0612aa18c828d01612326565b9250506101008a013567ffffffffffffffff811115612ac357612ac2612155565b5b612acf8c828d01612560565b9150509295985092959850929598565b600080600060608486031215612af857612af7612150565b5b6000612b06868287016121a3565b9350506020612b1786828701612326565b925050604084013567ffffffffffffffff811115612b3857612b37612155565b5b612b4486828701612560565b9150509250925092565b7f4e487b7100000000000000000000000000000000000000000000000000000000600052602260045260246000fd5b60006002820490506001821680612b9557607f821691505b602082108103612ba857612ba7612b4e565b5b50919050565b60008190508160005260206000209050919050565b60006020601f8301049050919050565b600082821b905092915050565b600060088302612c107fffffffffffffffffffffffffffffffffffffffffffffffffffffffffffffffff82612bd3565b612c1a8683612bd3565b95508019841693508086168417925050509392505050565b6000819050919050565b6000612c57612c52612c4d84612305565b612c32565b612305565b9050919050565b6000819050919050565b612c7183612c3c565b612c85612c7d82612c5e565b848454612be0565b825550505050565b600090565b612c9a612c8d565b612ca5818484612c68565b505050565b5b81811015612cc957612cbe600082612c92565b600181019050612cab565b5050565b601f821115612d0e57612cdf81612bae565b612ce884612bc3565b81016020851015612cf7578190505b612d0b612d0385612bc3565b830182612caa565b50505b505050565b600082821c905092915050565b6000612d3160001984600802612d13565b1980831691505092915050565b6000612d4a8383612d20565b9150826002028217905092915050565b612d6382612392565b67ffffffffffffffff811115612d7c57612d7b612463565b5b612d868254612b7d565b612d91828285612ccd565b600060209050601f831160018114612dc45760008415612db2578287015190505b612dbc8582612d3e565b865550612e24565b601f198416612dd286612bae565b60005b82811015612dfa57848901518255600182019150602085019450602081019050612dd5565b86831015612e175784890151612e13601f891682612d20565b8355505b6001600288020188555050505b505050505050565b7f4e487b7100000000000000000000000000000000000000000000000000000000600052603260045260246000fd5b7f4e487b7100000000000000000000000000000000000000000000000000000000600052601160045260246000fd5b6000612e9582612305565b91507fffffffffffffffffffffffffffffffffffffffffffffffffffffffffffffffff8203612ec757612ec6612e5b565b5b600182019050919050565b6000612edd82612305565b9150612ee883612305565b9250828203905081811115612f0057612eff612e5b565b5b92915050565b7f4e487b7100000000000000000000000000000000000000000000000000000000600052603160045260246000fdfea2646970667358221220d8cd292905a763aa4c284dadfed9f86d94cc9f487477818c60dbe9e018ccb7bd64736f6c63430008120033",
  "linkReferences": {},
  "deployedLinkReferences": {}
}