{
  "_format": "hh-sol-artifact-1",
  "contractName": "Agent",
  "sourceName": "contracts/Agent.sol",
  "abi": [
    {
      "inputs": [
        {
          "internalType": "uint256",
          "name": "_startTime",
          "type": "uint256"
        },
        {
          "internalType": "uint256",
          "name": "_endTime",
          "type": "uint256"
        }
      ],
      "name": "addAppointmentSlot",
      "outputs": [],
      "stateMutability": "nonpayable",
      "type": "function"
    },
    {
      "inputs": [
        {
          "internalType": "string",
          "name": "_name",
          "type": "string"
        },
        {
          "internalType": "uint256",
          "name": "_designation",
          "type": "uint256"
        },
        {
          "internalType": "string",
          "name": "_hash",
          "type": "string"
        }
      ],
      "name": "add_agent",
      "outputs": [
        {
          "internalType": "string",
          "name": "",
          "type": "string"
        }
      ],
      "stateMutability": "nonpayable",
      "type": "function"
    },
    {
      "inputs": [
        {
          "internalType": "string",
          "name": "_name",
          "type": "string"
        },
        {
          "internalType": "uint256",
          "name": "_mobileNo",
          "type": "uint256"
        },
        {
          "internalType": "string",
          "name": "_email",
          "type": "string"
        },
        {
          "internalType": "string",
          "name": "_website",
          "type": "string"
        },
        {
          "internalType": "string",
          "name": "_address",
          "type": "string"
        },
        {
          "internalType": "string",
          "name": "_speciality",
          "type": "string"
        },
        {
          "internalType": "uint256",
          "name": "_experience",
          "type": "uint256"
        },
        {
          "internalType": "uint256",
          "name": "_fees",
          "type": "uint256"
        }
      ],
      "name": "add_doctor",
      "outputs": [
        {
          "internalType": "string",
          "name": "",
          "type": "string"
        }
      ],
      "stateMutability": "nonpayable",
      "type": "function"
    },
    {
      "inputs": [
        {
          "internalType": "string",
          "name": "_name",
          "type": "string"
        },
        {
          "internalType": "string",
          "name": "_dateOfBirth",
          "type": "string"
        },
        {
          "internalType": "string",
          "name": "_email",
          "type": "string"
        },
        {
          "internalType": "uint256",
          "name": "_mobileNo",
          "type": "uint256"
        },
        {
          "internalType": "uint256",
          "name": "_alternateNo",
          "type": "uint256"
        },
        {
          "internalType": "string",
          "name": "_address",
          "type": "string"
        },
        {
          "internalType": "string",
          "name": "_insuranceName",
          "type": "string"
        },
        {
          "internalType": "uint256",
          "name": "_deductibilities",
          "type": "uint256"
        },
        {
          "internalType": "string",
          "name": "_validity",
          "type": "string"
        },
        {
          "internalType": "string",
          "name": "_hash",
          "type": "string"
        }
      ],
      "name": "add_patient",
      "outputs": [
        {
          "internalType": "string",
          "name": "",
          "type": "string"
        }
      ],
      "stateMutability": "nonpayable",
      "type": "function"
    },
    {
      "inputs": [
        {
          "internalType": "address",
          "name": "_doctor",
          "type": "address"
        },
        {
          "internalType": "uint256",
          "name": "_slotIndex",
          "type": "uint256"
        }
      ],
      "name": "bookAppointment",
      "outputs": [],
      "stateMutability": "nonpayable",
      "type": "function"
    },
    {
      "inputs": [
        {
          "internalType": "uint256",
          "name": "",
          "type": "uint256"
        }
      ],
      "name": "doctorList",
      "outputs": [
        {
          "internalType": "address",
          "name": "",
          "type": "address"
        }
      ],
      "stateMutability": "view",
      "type": "function"
    },
    {
      "inputs": [
        {
          "internalType": "address",
          "name": "_doctor",
          "type": "address"
        }
      ],
      "name": "getDoctorAppointments",
      "outputs": [
        {
          "components": [
            {
              "internalType": "uint256",
              "name": "startTime",
              "type": "uint256"
            },
            {
              "internalType": "uint256",
              "name": "endTime",
              "type": "uint256"
            },
            {
              "internalType": "address",
              "name": "patient",
              "type": "address"
            },
            {
              "internalType": "bool",
              "name": "isBooked",
              "type": "bool"
            }
          ],
          "internalType": "struct Agent.AppointmentSlot[]",
          "name": "",
          "type": "tuple[]"
        }
      ],
      "stateMutability": "view",
      "type": "function"
    },
    {
      "inputs": [
        {
          "internalType": "address",
          "name": "addr",
          "type": "address"
        }
      ],
      "name": "get_accessed_doctorlist_for_patient",
      "outputs": [
        {
          "internalType": "address[]",
          "name": "",
          "type": "address[]"
        }
      ],
      "stateMutability": "view",
      "type": "function"
    },
    {
      "inputs": [
        {
          "internalType": "address",
          "name": "addr",
          "type": "address"
        }
      ],
      "name": "get_accessed_patientlist_for_doctor",
      "outputs": [
        {
          "internalType": "address[]",
          "name": "",
          "type": "address[]"
        }
      ],
      "stateMutability": "view",
      "type": "function"
    },
    {
      "inputs": [
        {
          "internalType": "address",
          "name": "addr",
          "type": "address"
        }
      ],
      "name": "get_doctor",
      "outputs": [
        {
          "internalType": "string",
          "name": "",
          "type": "string"
        },
        {
          "internalType": "uint256",
          "name": "",
          "type": "uint256"
        },
        {
          "internalType": "string",
          "name": "",
          "type": "string"
        },
        {
          "internalType": "uint256",
          "name": "",
          "type": "uint256"
        }
      ],
      "stateMutability": "view",
      "type": "function"
    },
    {
      "inputs": [],
      "name": "get_doctor_list",
      "outputs": [
        {
          "internalType": "address[]",
          "name": "",
          "type": "address[]"
        }
      ],
      "stateMutability": "view",
      "type": "function"
    },
    {
      "inputs": [
        {
          "internalType": "address",
          "name": "paddr",
          "type": "address"
        }
      ],
      "name": "get_hash",
      "outputs": [
        {
          "internalType": "string",
          "name": "",
          "type": "string"
        }
      ],
      "stateMutability": "view",
      "type": "function"
    },
    {
      "inputs": [
        {
          "internalType": "address",
          "name": "addr",
          "type": "address"
        }
      ],
      "name": "get_insurance",
      "outputs": [
        {
          "internalType": "string",
          "name": "",
          "type": "string"
        }
      ],
      "stateMutability": "view",
      "type": "function"
    },
    {
      "inputs": [
        {
          "internalType": "address",
          "name": "addr",
          "type": "address"
        }
      ],
      "name": "get_patient",
      "outputs": [
        {
          "internalType": "string",
          "name": "",
          "type": "string"
        },
        {
          "internalType": "string",
          "name": "",
          "type": "string"
        },
        {
          "internalType": "uint256[]",
          "name": "",
          "type": "uint256[]"
        },
        {
          "internalType": "address",
          "name": "",
          "type": "address"
        },
        {
          "internalType": "string",
          "name": "",
          "type": "string"
        }
      ],
      "stateMutability": "view",
      "type": "function"
    },
    {
      "inputs": [
        {
          "internalType": "address",
          "name": "paddr",
          "type": "address"
        },
        {
          "internalType": "address",
          "name": "daddr",
          "type": "address"
        }
      ],
      "name": "get_patient_doctor_name",
      "outputs": [
        {
          "internalType": "string",
          "name": "",
          "type": "string"
        },
        {
          "internalType": "string",
          "name": "",
          "type": "string"
        }
      ],
      "stateMutability": "view",
      "type": "function"
    },
    {
      "inputs": [],
      "name": "get_patient_list",
      "outputs": [
        {
          "internalType": "address[]",
          "name": "",
          "type": "address[]"
        }
      ],
      "stateMutability": "view",
      "type": "function"
    },
    {
      "inputs": [
        {
          "internalType": "uint256",
          "name": "",
          "type": "uint256"
        }
      ],
      "name": "insuranceList",
      "outputs": [
        {
          "internalType": "address",
          "name": "",
          "type": "address"
        }
      ],
      "stateMutability": "view",
      "type": "function"
    },
    {
      "inputs": [
        {
          "internalType": "address",
          "name": "paddr",
          "type": "address"
        },
        {
          "internalType": "uint256",
          "name": "_diagnosis",
          "type": "uint256"
        },
        {
          "internalType": "string",
          "name": "_hash",
          "type": "string"
        }
      ],
      "name": "insurance_claim",
      "outputs": [],
      "stateMutability": "nonpayable",
      "type": "function"
    },
    {
      "inputs": [
        {
          "internalType": "uint256",
          "name": "",
          "type": "uint256"
        }
      ],
      "name": "patientList",
      "outputs": [
        {
          "internalType": "address",
          "name": "",
          "type": "address"
        }
      ],
      "stateMutability": "view",
      "type": "function"
    },
    {
      "inputs": [
        {
          "internalType": "address",
          "name": "addr",
          "type": "address"
        }
      ],
      "name": "permit_access",
      "outputs": [],
      "stateMutability": "payable",
      "type": "function"
    },
    {
      "inputs": [
        {
          "internalType": "address",
          "name": "paddr",
          "type": "address"
        },
        {
          "internalType": "address",
          "name": "daddr",
          "type": "address"
        }
      ],
      "name": "remove_patient",
      "outputs": [],
      "stateMutability": "nonpayable",
      "type": "function"
    },
    {
      "inputs": [
        {
          "internalType": "address",
          "name": "daddr",
          "type": "address"
        }
      ],
      "name": "revoke_access",
      "outputs": [],
      "stateMutability": "payable",
      "type": "function"
    }
  ],
  "bytecode": "0x608060405234801561001057600080fd5b506135fe806100206000396000f3fe6080604052600436106101345760003560e01c80637e1519ce116100ab578063c5598c911161006f578063c5598c9114610495578063d2e4c2bd146104d2578063dd44176b1461050f578063e81ac0541461054c578063eef2899614610577578063f24be9e7146105a057610134565b80637e1519ce14610397578063b9b3a6d1146103d4578063babb1d4114610411578063bcffb7ca1461044e578063c39e96351461046a57610134565b806327b1dcee116100fd57806327b1dcee14610243578063346826461461025f5780633e42542f1461029c5780634042d2d4146102d95780635483c5661461031a57806356c98c481461035757610134565b80627ee3ce146101395780630362fe9b14610176578063127ca4b41461019f5780631e3fc3b8146101dc578063223310c91461021a575b600080fd5b34801561014557600080fd5b50610160600480360381019061015b91906125e2565b6105c9565b60405161016d91906126cd565b60405180910390f35b34801561018257600080fd5b5061019d600480360381019061019891906126ef565b61069f565b005b3480156101ab57600080fd5b506101c660048036038101906101c19190612765565b610739565b6040516101d391906127a1565b60405180910390f35b3480156101e857600080fd5b5061020360048036038101906101fe91906126ef565b610778565b60405161021192919061284c565b60405180910390f35b34801561022657600080fd5b50610241600480360381019061023c9190612883565b610922565b005b61025d600480360381019061025891906125e2565b610a88565b005b34801561026b57600080fd5b50610286600480360381019061028191906129f8565b610a95565b6040516102939190612b9b565b60405180910390f35b3480156102a857600080fd5b506102c360048036038101906102be9190612765565b610cb4565b6040516102d091906127a1565b60405180910390f35b3480156102e557600080fd5b5061030060048036038101906102fb91906125e2565b610cf3565b604051610311959493929190612c7b565b60405180910390f35b34801561032657600080fd5b50610341600480360381019061033c91906125e2565b61106d565b60405161034e9190612b9b565b60405180910390f35b34801561036357600080fd5b5061037e600480360381019061037991906125e2565b611141565b60405161038e9493929190612cf9565b60405180910390f35b3480156103a357600080fd5b506103be60048036038101906103b991906125e2565b61137a565b6040516103cb9190612b9b565b60405180910390f35b3480156103e057600080fd5b506103fb60048036038101906103f69190612d4c565b61144e565b6040516104089190612b9b565b60405180910390f35b34801561041d57600080fd5b5061043860048036038101906104339190612765565b61160d565b60405161044591906127a1565b60405180910390f35b610468600480360381019061046391906125e2565b61164c565b005b34801561047657600080fd5b5061047f611795565b60405161048c91906126cd565b60405180910390f35b3480156104a157600080fd5b506104bc60048036038101906104b791906125e2565b611823565b6040516104c99190612fad565b60405180910390f35b3480156104de57600080fd5b506104f960048036038101906104f49190612fcf565b611946565b6040516105069190612b9b565b60405180910390f35b34801561051b57600080fd5b50610536600480360381019061053191906125e2565b611ca9565b60405161054391906126cd565b60405180910390f35b34801561055857600080fd5b50610561611d79565b60405161056e91906126cd565b60405180910390f35b34801561058357600080fd5b5061059e6004803603810190610599919061305a565b611e07565b005b3480156105ac57600080fd5b506105c760048036038101906105c2919061309a565b611f21565b005b60606000600460008473ffffffffffffffffffffffffffffffffffffffff1673ffffffffffffffffffffffffffffffffffffffff16815260200190815260200160002060020190508080548060200260200160405190810160405280929190818152602001828054801561069257602002820191906000526020600020905b8160009054906101000a900473ffffffffffffffffffffffffffffffffffffffff1673ffffffffffffffffffffffffffffffffffffffff1681526020019060010190808311610648575b5050505050915050919050565b6106ea600560008373ffffffffffffffffffffffffffffffffffffffff1673ffffffffffffffffffffffffffffffffffffffff1681526020019081526020016000206008018361213c565b610735600460008473ffffffffffffffffffffffffffffffffffffffff1673ffffffffffffffffffffffffffffffffffffffff1681526020019081526020016000206002018261213c565b5050565b6002818154811061074957600080fd5b906000526020600020016000915054906101000a900473ffffffffffffffffffffffffffffffffffffffff1681565b606080600460008573ffffffffffffffffffffffffffffffffffffffff1673ffffffffffffffffffffffffffffffffffffffff168152602001908152602001600020600001600560008573ffffffffffffffffffffffffffffffffffffffff1673ffffffffffffffffffffffffffffffffffffffff16815260200190815260200160002060000181805461080b90613138565b80601f016020809104026020016040519081016040528092919081815260200182805461083790613138565b80156108845780601f1061085957610100808354040283529160200191610884565b820191906000526020600020905b81548152906001019060200180831161086757829003601f168201915b5050505050915080805461089790613138565b80601f01602080910402602001604051908101604052809291908181526020018280546108c390613138565b80156109105780601f106108e557610100808354040283529160200191610910565b820191906000526020600020905b8154815290600101906020018083116108f357829003601f168201915b50505050509050915091509250929050565b808210610964576040517f08c379a000000000000000000000000000000000000000000000000000000000815260040161095b906131b5565b60405180910390fd5b600960003373ffffffffffffffffffffffffffffffffffffffff1673ffffffffffffffffffffffffffffffffffffffff1681526020019081526020016000206040518060800160405280848152602001838152602001600073ffffffffffffffffffffffffffffffffffffffff168152602001600015158152509080600181540180825580915050600190039060005260206000209060030201600090919091909150600082015181600001556020820151816001015560408201518160020160006101000a81548173ffffffffffffffffffffffffffffffffffffffff021916908373ffffffffffffffffffffffffffffffffffffffff16021790555060608201518160020160146101000a81548160ff02191690831515021790555050505050565b610a92338261069f565b50565b60606000339050610aa46123cf565b8c81600001819052508b81602001819052508a8160a00181905250898160c0018181525050888160e0018181525050878161010001819052508681610120018190525085816101400181815250508481610160018190525083816080018190525080600460003373ffffffffffffffffffffffffffffffffffffffff1673ffffffffffffffffffffffffffffffffffffffff1681526020019081526020016000206000820151816000019081610b5a9190613381565b506020820151816001019081610b709190613381565b506040820151816002019080519060200190610b8d929190612430565b506060820151816003019080519060200190610baa9291906124ba565b506080820151816004019081610bc09190613381565b5060a0820151816005019081610bd69190613381565b5060c0820151816006015560e08201518160070155610100820151816008019081610c019190613381565b50610120820151816009019081610c189190613381565b5061014082015181600a015561016082015181600b019081610c3a9190613381565b509050506001829080600181540180825580915050600190039060005260206000200160009091909190916101000a81548173ffffffffffffffffffffffffffffffffffffffff021916908373ffffffffffffffffffffffffffffffffffffffff1602179055508c925050509a9950505050505050505050565b60038181548110610cc457600080fd5b906000526020600020016000915054906101000a900473ffffffffffffffffffffffffffffffffffffffff1681565b606080606060006060600460008773ffffffffffffffffffffffffffffffffffffffff1673ffffffffffffffffffffffffffffffffffffffff168152602001908152602001600020600001600460008873ffffffffffffffffffffffffffffffffffffffff1673ffffffffffffffffffffffffffffffffffffffff168152602001908152602001600020600101600460008973ffffffffffffffffffffffffffffffffffffffff1673ffffffffffffffffffffffffffffffffffffffff168152602001908152602001600020600301600760008a73ffffffffffffffffffffffffffffffffffffffff1673ffffffffffffffffffffffffffffffffffffffff16815260200190815260200160002060009054906101000a900473ffffffffffffffffffffffffffffffffffffffff16600460008b73ffffffffffffffffffffffffffffffffffffffff1673ffffffffffffffffffffffffffffffffffffffff168152602001908152602001600020600401848054610e7090613138565b80601f0160208091040260200160405190810160405280929190818152602001828054610e9c90613138565b8015610ee95780601f10610ebe57610100808354040283529160200191610ee9565b820191906000526020600020905b815481529060010190602001808311610ecc57829003601f168201915b50505050509450838054610efc90613138565b80601f0160208091040260200160405190810160405280929190818152602001828054610f2890613138565b8015610f755780601f10610f4a57610100808354040283529160200191610f75565b820191906000526020600020905b815481529060010190602001808311610f5857829003601f168201915b5050505050935082805480602002602001604051908101604052809291908181526020018280548015610fc757602002820191906000526020600020905b815481526020019060010190808311610fb3575b50505050509250808054610fda90613138565b80601f016020809104026020016040519081016040528092919081815260200182805461100690613138565b80156110535780601f1061102857610100808354040283529160200191611053565b820191906000526020600020905b81548152906001019060200180831161103657829003601f168201915b505050505090509450945094509450945091939590929450565b6060600660008373ffffffffffffffffffffffffffffffffffffffff1673ffffffffffffffffffffffffffffffffffffffff16815260200190815260200160002060000180546110bc90613138565b80601f01602080910402602001604051908101604052809291908181526020018280546110e890613138565b80156111355780601f1061110a57610100808354040283529160200191611135565b820191906000526020600020905b81548152906001019060200180831161111857829003601f168201915b50505050509050919050565b6060600060606000600560008673ffffffffffffffffffffffffffffffffffffffff1673ffffffffffffffffffffffffffffffffffffffff168152602001908152602001600020600001600560008773ffffffffffffffffffffffffffffffffffffffff1673ffffffffffffffffffffffffffffffffffffffff16815260200190815260200160002060060154600560008873ffffffffffffffffffffffffffffffffffffffff1673ffffffffffffffffffffffffffffffffffffffff168152602001908152602001600020600101600560008973ffffffffffffffffffffffffffffffffffffffff1673ffffffffffffffffffffffffffffffffffffffff1681526020019081526020016000206007015483805461125f90613138565b80601f016020809104026020016040519081016040528092919081815260200182805461128b90613138565b80156112d85780601f106112ad576101008083540402835291602001916112d8565b820191906000526020600020905b8154815290600101906020018083116112bb57829003601f168201915b505050505093508180546112eb90613138565b80601f016020809104026020016040519081016040528092919081815260200182805461131790613138565b80156113645780601f1061133957610100808354040283529160200191611364565b820191906000526020600020905b81548152906001019060200180831161134757829003601f168201915b5050505050915093509350935093509193509193565b6060600460008373ffffffffffffffffffffffffffffffffffffffff1673ffffffffffffffffffffffffffffffffffffffff16815260200190815260200160002060040180546113c990613138565b80601f01602080910402602001604051908101604052809291908181526020018280546113f590613138565b80156114425780601f1061141757610100808354040283529160200191611442565b820191906000526020600020905b81548152906001019060200180831161142557829003601f168201915b50505050509050919050565b6060600033905061145d612507565b8a816000018190525085816020018190525088816040018190525089816060018181525050868160800181905250878160a00181905250848160c0018181525050838160e001818152505080600560003373ffffffffffffffffffffffffffffffffffffffff1673ffffffffffffffffffffffffffffffffffffffff16815260200190815260200160002060008201518160000190816114fd9190613381565b5060208201518160010190816115139190613381565b5060408201518160020190816115299190613381565b506060820151816003015560808201518160040190816115499190613381565b5060a082015181600501908161155f9190613381565b5060c0820151816006015560e08201518160070155610100820151816008019080519060200190611591929190612430565b509050506002829080600181540180825580915050600190039060005260206000200160009091909190916101000a81548173ffffffffffffffffffffffffffffffffffffffff021916908373ffffffffffffffffffffffffffffffffffffffff16021790555080600001519250505098975050505050505050565b6001818154811061161d57600080fd5b906000526020600020016000915054906101000a900473ffffffffffffffffffffffffffffffffffffffff1681565b600560008273ffffffffffffffffffffffffffffffffffffffff1673ffffffffffffffffffffffffffffffffffffffff168152602001908152602001600020600801339080600181540180825580915050600190039060005260206000200160009091909190916101000a81548173ffffffffffffffffffffffffffffffffffffffff021916908373ffffffffffffffffffffffffffffffffffffffff160217905550600460003373ffffffffffffffffffffffffffffffffffffffff1673ffffffffffffffffffffffffffffffffffffffff168152602001908152602001600020600201819080600181540180825580915050600190039060005260206000200160009091909190916101000a81548173ffffffffffffffffffffffffffffffffffffffff021916908373ffffffffffffffffffffffffffffffffffffffff16021790555050565b6060600280548060200260200160405190810160405280929190818152602001828054801561181957602002820191906000526020600020905b8160009054906101000a900473ffffffffffffffffffffffffffffffffffffffff1673ffffffffffffffffffffffffffffffffffffffff16815260200190600101908083116117cf575b5050505050905090565b6060600960008373ffffffffffffffffffffffffffffffffffffffff1673ffffffffffffffffffffffffffffffffffffffff168152602001908152602001600020805480602002602001604051908101604052809291908181526020016000905b8282101561193b578382906000526020600020906003020160405180608001604052908160008201548152602001600182015481526020016002820160009054906101000a900473ffffffffffffffffffffffffffffffffffffffff1673ffffffffffffffffffffffffffffffffffffffff1673ffffffffffffffffffffffffffffffffffffffff1681526020016002820160149054906101000a900460ff16151515158152505081526020019060010190611884565b505050509050919050565b6060600033905060008403611b155761195d6123cf565b85816000018190525083816080018190525080600460003373ffffffffffffffffffffffffffffffffffffffff1673ffffffffffffffffffffffffffffffffffffffff16815260200190815260200160002060008201518160000190816119c49190613381565b5060208201518160010190816119da9190613381565b5060408201518160020190805190602001906119f7929190612430565b506060820151816003019080519060200190611a149291906124ba565b506080820151816004019081611a2a9190613381565b5060a0820151816005019081611a409190613381565b5060c0820151816006015560e08201518160070155610100820151816008019081611a6b9190613381565b50610120820151816009019081611a829190613381565b5061014082015181600a015561016082015181600b019081611aa49190613381565b509050506001829080600181540180825580915050600190039060005260206000200160009091909190916101000a81548173ffffffffffffffffffffffffffffffffffffffff021916908373ffffffffffffffffffffffffffffffffffffffff1602179055508592505050611ca2565b60018403611bd95784600560008373ffffffffffffffffffffffffffffffffffffffff1673ffffffffffffffffffffffffffffffffffffffff1681526020019081526020016000206000019081611b6c9190613381565b506002819080600181540180825580915050600190039060005260206000200160009091909190916101000a81548173ffffffffffffffffffffffffffffffffffffffff021916908373ffffffffffffffffffffffffffffffffffffffff16021790555084915050611ca2565b60028403611c9d5784600660008373ffffffffffffffffffffffffffffffffffffffff1673ffffffffffffffffffffffffffffffffffffffff1681526020019081526020016000206000019081611c309190613381565b506003819080600181540180825580915050600190039060005260206000200160009091909190916101000a81548173ffffffffffffffffffffffffffffffffffffffff021916908373ffffffffffffffffffffffffffffffffffffffff16021790555084915050611ca2565b600080fd5b9392505050565b6060600560008373ffffffffffffffffffffffffffffffffffffffff1673ffffffffffffffffffffffffffffffffffffffff168152602001908152602001600020600801805480602002602001604051908101604052809291908181526020018280548015611d6d57602002820191906000526020600020905b8160009054906101000a900473ffffffffffffffffffffffffffffffffffffffff1673ffffffffffffffffffffffffffffffffffffffff1681526020019060010190808311611d23575b50505050509050919050565b60606001805480602002602001604051908101604052809291908181526020018280548015611dfd57602002820191906000526020600020905b8160009054906101000a900473ffffffffffffffffffffffffffffffffffffffff1673ffffffffffffffffffffffffffffffffffffffff1681526020019060010190808311611db3575b5050505050905090565b6000600960008473ffffffffffffffffffffffffffffffffffffffff1673ffffffffffffffffffffffffffffffffffffffff1681526020019081526020016000208281548110611e5a57611e59613453565b5b906000526020600020906003020190508060020160149054906101000a900460ff1615611ebc576040517f08c379a0000000000000000000000000000000000000000000000000000000008152600401611eb3906134ce565b60405180910390fd5b60018160020160146101000a81548160ff021916908315150217905550338160020160006101000a81548173ffffffffffffffffffffffffffffffffffffffff021916908373ffffffffffffffffffffffffffffffffffffffff160217905550505050565b6000805b600560003373ffffffffffffffffffffffffffffffffffffffff1673ffffffffffffffffffffffffffffffffffffffff1681526020019081526020016000206008018054905081101561203b578473ffffffffffffffffffffffffffffffffffffffff16600560003373ffffffffffffffffffffffffffffffffffffffff1673ffffffffffffffffffffffffffffffffffffffff1681526020019081526020016000206008018281548110611fdd57611fdc613453565b5b9060005260206000200160009054906101000a900473ffffffffffffffffffffffffffffffffffffffff1673ffffffffffffffffffffffffffffffffffffffff160361202857600191505b80806120339061351d565b915050611f25565b50600115158115150361206157612052848361237b565b61205c843361069f565b612066565b600080fd5b6000805b600460008773ffffffffffffffffffffffffffffffffffffffff1673ffffffffffffffffffffffffffffffffffffffff168152602001908152602001600020600301805490508110156121345784600460008873ffffffffffffffffffffffffffffffffffffffff1673ffffffffffffffffffffffffffffffffffffffff168152602001908152602001600020600301828154811061210c5761210b613453565b5b90600052602060002001540361212157600191505b808061212c9061351d565b91505061206a565b505050505050565b60008060005b84805490508110156121d9578373ffffffffffffffffffffffffffffffffffffffff1685828154811061217857612177613453565b5b9060005260206000200160009054906101000a900473ffffffffffffffffffffffffffffffffffffffff1673ffffffffffffffffffffffffffffffffffffffff16036121c657600192508091505b80806121d19061351d565b915050612142565b50816121e457600080fd5b60018480549050036122355783818154811061220357612202613453565b5b9060005260206000200160006101000a81549073ffffffffffffffffffffffffffffffffffffffff021916905561232f565b83600185805490506122479190613565565b8154811061225857612257613453565b5b9060005260206000200160009054906101000a900473ffffffffffffffffffffffffffffffffffffffff1684828154811061229657612295613453565b5b9060005260206000200160006101000a81548173ffffffffffffffffffffffffffffffffffffffff021916908373ffffffffffffffffffffffffffffffffffffffff16021790555083600185805490506122f09190613565565b8154811061230157612300613453565b5b9060005260206000200160006101000a81549073ffffffffffffffffffffffffffffffffffffffff02191690555b838054806123405761233f613599565b5b6001900381819060005260206000200160006101000a81549073ffffffffffffffffffffffffffffffffffffffff0219169055905550505050565b80600460008473ffffffffffffffffffffffffffffffffffffffff1673ffffffffffffffffffffffffffffffffffffffff16815260200190815260200160002060040190816123ca9190613381565b505050565b6040518061018001604052806060815260200160608152602001606081526020016060815260200160608152602001606081526020016000815260200160008152602001606081526020016060815260200160008152602001606081525090565b8280548282559060005260206000209081019282156124a9579160200282015b828111156124a85782518260006101000a81548173ffffffffffffffffffffffffffffffffffffffff021916908373ffffffffffffffffffffffffffffffffffffffff16021790555091602001919060010190612450565b5b5090506124b69190612553565b5090565b8280548282559060005260206000209081019282156124f6579160200282015b828111156124f55782518255916020019190600101906124da565b5b5090506125039190612553565b5090565b6040518061012001604052806060815260200160608152602001606081526020016000815260200160608152602001606081526020016000815260200160008152602001606081525090565b5b8082111561256c576000816000905550600101612554565b5090565b6000604051905090565b600080fd5b600080fd5b600073ffffffffffffffffffffffffffffffffffffffff82169050919050565b60006125af82612584565b9050919050565b6125bf816125a4565b81146125ca57600080fd5b50565b6000813590506125dc816125b6565b92915050565b6000602082840312156125f8576125f761257a565b5b6000612606848285016125cd565b91505092915050565b600081519050919050565b600082825260208201905092915050565b6000819050602082019050919050565b612644816125a4565b82525050565b6000612656838361263b565b60208301905092915050565b6000602082019050919050565b600061267a8261260f565b612684818561261a565b935061268f8361262b565b8060005b838110156126c05781516126a7888261264a565b97506126b283612662565b925050600181019050612693565b5085935050505092915050565b600060208201905081810360008301526126e7818461266f565b905092915050565b600080604083850312156127065761270561257a565b5b6000612714858286016125cd565b9250506020612725858286016125cd565b9150509250929050565b6000819050919050565b6127428161272f565b811461274d57600080fd5b50565b60008135905061275f81612739565b92915050565b60006020828403121561277b5761277a61257a565b5b600061278984828501612750565b91505092915050565b61279b816125a4565b82525050565b60006020820190506127b66000830184612792565b92915050565b600081519050919050565b600082825260208201905092915050565b60005b838110156127f65780820151818401526020810190506127db565b60008484015250505050565b6000601f19601f8301169050919050565b600061281e826127bc565b61282881856127c7565b93506128388185602086016127d8565b61284181612802565b840191505092915050565b600060408201905081810360008301526128668185612813565b9050818103602083015261287a8184612813565b90509392505050565b6000806040838503121561289a5761289961257a565b5b60006128a885828601612750565b92505060206128b985828601612750565b9150509250929050565b600080fd5b600080fd5b7f4e487b7100000000000000000000000000000000000000000000000000000000600052604160045260246000fd5b61290582612802565b810181811067ffffffffffffffff82111715612924576129236128cd565b5b80604052505050565b6000612937612570565b905061294382826128fc565b919050565b600067ffffffffffffffff821115612963576129626128cd565b5b61296c82612802565b9050602081019050919050565b82818337600083830152505050565b600061299b61299684612948565b61292d565b9050828152602081018484840111156129b7576129b66128c8565b5b6129c2848285612979565b509392505050565b600082601f8301126129df576129de6128c3565b5b81356129ef848260208601612988565b91505092915050565b6000806000806000806000806000806101408b8d031215612a1c57612a1b61257a565b5b60008b013567ffffffffffffffff811115612a3a57612a3961257f565b5b612a468d828e016129ca565b9a505060208b013567ffffffffffffffff811115612a6757612a6661257f565b5b612a738d828e016129ca565b99505060408b013567ffffffffffffffff811115612a9457612a9361257f565b5b612aa08d828e016129ca565b9850506060612ab18d828e01612750565b9750506080612ac28d828e01612750565b96505060a08b013567ffffffffffffffff811115612ae357612ae261257f565b5b612aef8d828e016129ca565b95505060c08b013567ffffffffffffffff811115612b1057612b0f61257f565b5b612b1c8d828e016129ca565b94505060e0612b2d8d828e01612750565b9350506101008b013567ffffffffffffffff811115612b4f57612b4e61257f565b5b612b5b8d828e016129ca565b9250506101208b013567ffffffffffffffff811115612b7d57612b7c61257f565b5b612b898d828e016129ca565b9150509295989b9194979a5092959850565b60006020820190508181036000830152612bb58184612813565b905092915050565b600081519050919050565b600082825260208201905092915050565b6000819050602082019050919050565b612bf28161272f565b82525050565b6000612c048383612be9565b60208301905092915050565b6000602082019050919050565b6000612c2882612bbd565b612c328185612bc8565b9350612c3d83612bd9565b8060005b83811015612c6e578151612c558882612bf8565b9750612c6083612c10565b925050600181019050612c41565b5085935050505092915050565b600060a0820190508181036000830152612c958188612813565b90508181036020830152612ca98187612813565b90508181036040830152612cbd8186612c1d565b9050612ccc6060830185612792565b8181036080830152612cde8184612813565b90509695505050505050565b612cf38161272f565b82525050565b60006080820190508181036000830152612d138187612813565b9050612d226020830186612cea565b8181036040830152612d348185612813565b9050612d436060830184612cea565b95945050505050565b600080600080600080600080610100898b031215612d6d57612d6c61257a565b5b600089013567ffffffffffffffff811115612d8b57612d8a61257f565b5b612d978b828c016129ca565b9850506020612da88b828c01612750565b975050604089013567ffffffffffffffff811115612dc957612dc861257f565b5b612dd58b828c016129ca565b965050606089013567ffffffffffffffff811115612df657612df561257f565b5b612e028b828c016129ca565b955050608089013567ffffffffffffffff811115612e2357612e2261257f565b5b612e2f8b828c016129ca565b94505060a089013567ffffffffffffffff811115612e5057612e4f61257f565b5b612e5c8b828c016129ca565b93505060c0612e6d8b828c01612750565b92505060e0612e7e8b828c01612750565b9150509295985092959890939650565b600081519050919050565b600082825260208201905092915050565b6000819050602082019050919050565b60008115159050919050565b612ecf81612eba565b82525050565b608082016000820151612eeb6000850182612be9565b506020820151612efe6020850182612be9565b506040820151612f11604085018261263b565b506060820151612f246060850182612ec6565b50505050565b6000612f368383612ed5565b60808301905092915050565b6000602082019050919050565b6000612f5a82612e8e565b612f648185612e99565b9350612f6f83612eaa565b8060005b83811015612fa0578151612f878882612f2a565b9750612f9283612f42565b925050600181019050612f73565b5085935050505092915050565b60006020820190508181036000830152612fc78184612f4f565b905092915050565b600080600060608486031215612fe857612fe761257a565b5b600084013567ffffffffffffffff8111156130065761300561257f565b5b613012868287016129ca565b935050602061302386828701612750565b925050604084013567ffffffffffffffff8111156130445761304361257f565b5b613050868287016129ca565b9150509250925092565b600080604083850312156130715761307061257a565b5b600061307f858286016125cd565b925050602061309085828601612750565b9150509250929050565b6000806000606084860312156130b3576130b261257a565b5b60006130c1868287016125cd565b93505060206130d286828701612750565b925050604084013567ffffffffffffffff8111156130f3576130f261257f565b5b6130ff868287016129ca565b9150509250925092565b7f4e487b7100000000000000000000000000000000000000000000000000000000600052602260045260246000fd5b6000600282049050600182168061315057607f821691505b60208210810361316357613162613109565b5b50919050565b7f496e76616c69642074696d652072616e67650000000000000000000000000000600082015250565b600061319f6012836127c7565b91506131aa82613169565b602082019050919050565b600060208201905081810360008301526131ce81613192565b9050919050565b60008190508160005260206000209050919050565b60006020601f8301049050919050565b600082821b905092915050565b6000600883026132377fffffffffffffffffffffffffffffffffffffffffffffffffffffffffffffffff826131fa565b61324186836131fa565b95508019841693508086168417925050509392505050565b6000819050919050565b600061327e6132796132748461272f565b613259565b61272f565b9050919050565b6000819050919050565b61329883613263565b6132ac6132a482613285565b848454613207565b825550505050565b600090565b6132c16132b4565b6132cc81848461328f565b505050565b5b818110156132f0576132e56000826132b9565b6001810190506132d2565b5050565b601f82111561333557613306816131d5565b61330f846131ea565b8101602085101561331e578190505b61333261332a856131ea565b8301826132d1565b50505b505050565b600082821c905092915050565b60006133586000198460080261333a565b1980831691505092915050565b60006133718383613347565b9150826002028217905092915050565b61338a826127bc565b67ffffffffffffffff8111156133a3576133a26128cd565b5b6133ad8254613138565b6133b88282856132f4565b600060209050601f8311600181146133eb57600084156133d9578287015190505b6133e38582613365565b86555061344b565b601f1984166133f9866131d5565b60005b82811015613421578489015182556001820191506020850194506020810190506133fc565b8683101561343e578489015161343a601f891682613347565b8355505b6001600288020188555050505b505050505050565b7f4e487b7100000000000000000000000000000000000000000000000000000000600052603260045260246000fd5b7f4170706f696e746d656e7420616c726561647920626f6f6b6564000000000000600082015250565b60006134b8601a836127c7565b91506134c382613482565b602082019050919050565b600060208201905081810360008301526134e7816134ab565b9050919050565b7f4e487b7100000000000000000000000000000000000000000000000000000000600052601160045260246000fd5b60006135288261272f565b91507fffffffffffffffffffffffffffffffffffffffffffffffffffffffffffffffff820361355a576135596134ee565b5b600182019050919050565b60006135708261272f565b915061357b8361272f565b9250828203905081811115613593576135926134ee565b5b92915050565b7f4e487b7100000000000000000000000000000000000000000000000000000000600052603160045260246000fdfea2646970667358221220dedd4c55e427b72975ad6019612c4cf164b2d76fdf4a2a97caeb5154699feb0064736f6c63430008120033",
  "linkReferences": {},
  "deployedLinkReferences": {}
}